{"abi":[{"inputs":[{"internalType":"uint256","name":"minimum","type":"uint256"},{"internalType":"address","name":"creator","type":"address"}],"stateMutability":"nonpayable","type":"constructor"},{"inputs":[{"internalType":"uint256","name":"index","type":"uint256"}],"name":"approveRequest","outputs":[],"stateMutability":"nonpayable","type":"function"},{"inputs":[{"internalType":"address","name":"","type":"address"}],"name":"approvers","outputs":[{"internalType":"bool","name":"","type":"bool"}],"stateMutability":"view","type":"function"},{"inputs":[],"name":"approversCount","outputs":[{"internalType":"uint256","name":"","type":"uint256"}],"stateMutability":"view","type":"function"},{"inputs":[],"name":"contribute","outputs":[],"stateMutability":"payable","type":"function"},{"inputs":[{"internalType":"string","name":"description","type":"string"},{"internalType":"uint256","name":"value","type":"uint256"},{"internalType":"address payable","name":"recipient","type":"address"}],"name":"createRequest","outputs":[],"stateMutability":"nonpayable","type":"function"},{"inputs":[{"internalType":"uint256","name":"index","type":"uint256"}],"name":"finalizeRequest","outputs":[],"stateMutability":"nonpayable","type":"function"},{"inputs":[],"name":"manager","outputs":[{"internalType":"address","name":"","type":"address"}],"stateMutability":"view","type":"function"},{"inputs":[],"name":"minContribution","outputs":[{"internalType":"uint256","name":"","type":"uint256"}],"stateMutability":"view","type":"function"},{"inputs":[{"internalType":"uint256","name":"","type":"uint256"}],"name":"requests","outputs":[{"internalType":"string","name":"description","type":"string"},{"internalType":"uint256","name":"value","type":"uint256"},{"internalType":"address payable","name":"recipient","type":"address"},{"internalType":"bool","name":"complete","type":"bool"},{"internalType":"uint256","name":"approvalCount","type":"uint256"}],"stateMutability":"view","type":"function"}],"devdoc":{"kind":"dev","methods":{},"version":1},"evm":{"assembly":"    /* \"Campaign.sol\":792:3927  contract Campaign {... */\n  mstore(0x40, 0x80)\n    /* \"Campaign.sol\":2114:2260  constructor(uint minimum, address creator) {... */\n  callvalue\n  dup1\n  iszero\n  tag_1\n  jumpi\n  0x00\n  dup1\n  revert\ntag_1:\n  pop\n  mload(0x40)\n  sub(codesize, bytecodeSize)\n  dup1\n  bytecodeSize\n  dup4\n  codecopy\n  dup2\n  dup2\n  add\n  0x40\n  mstore\n  dup2\n  add\n  swap1\n  tag_2\n  swap2\n  swap1\n  tag_3\n  jump\t// in\ntag_2:\n    /* \"Campaign.sol\":2174:2181  creator */\n  dup1\n    /* \"Campaign.sol\":2164:2171  manager */\n  0x01\n  0x00\n    /* \"Campaign.sol\":2164:2181  manager = creator */\n  0x0100\n  exp\n  dup2\n  sload\n  dup2\n  0xffffffffffffffffffffffffffffffffffffffff\n  mul\n  not\n  and\n  swap1\n  dup4\n  0xffffffffffffffffffffffffffffffffffffffff\n  and\n  mul\n  or\n  swap1\n  sstore\n  pop\n    /* \"Campaign.sol\":2206:2213  minimum */\n  dup2\n    /* \"Campaign.sol\":2188:2203  minContribution */\n  0x02\n    /* \"Campaign.sol\":2188:2213  minContribution = minimum */\n  dup2\n  swap1\n  sstore\n  pop\n    /* \"Campaign.sol\":2114:2260  constructor(uint minimum, address creator) {... */\n  pop\n  pop\n    /* \"Campaign.sol\":792:3927  contract Campaign {... */\n  jump(tag_6)\n    /* \"#utility.yul\":88:205   */\ntag_8:\n    /* \"#utility.yul\":197:198   */\n  0x00\n    /* \"#utility.yul\":194:195   */\n  dup1\n    /* \"#utility.yul\":187:199   */\n  revert\n    /* \"#utility.yul\":334:411   */\ntag_10:\n    /* \"#utility.yul\":371:378   */\n  0x00\n    /* \"#utility.yul\":400:405   */\n  dup2\n    /* \"#utility.yul\":389:405   */\n  swap1\n  pop\n    /* \"#utility.yul\":334:411   */\n  swap2\n  swap1\n  pop\n  jump\t// out\n    /* \"#utility.yul\":417:539   */\ntag_11:\n    /* \"#utility.yul\":490:514   */\n  tag_23\n    /* \"#utility.yul\":508:513   */\n  dup2\n    /* \"#utility.yul\":490:514   */\n  tag_10\n  jump\t// in\ntag_23:\n    /* \"#utility.yul\":483:488   */\n  dup2\n    /* \"#utility.yul\":480:515   */\n  eq\n    /* \"#utility.yul\":470:533   */\n  tag_24\n  jumpi\n    /* \"#utility.yul\":529:530   */\n  0x00\n    /* \"#utility.yul\":526:527   */\n  dup1\n    /* \"#utility.yul\":519:531   */\n  revert\n    /* \"#utility.yul\":470:533   */\ntag_24:\n    /* \"#utility.yul\":417:539   */\n  pop\n  jump\t// out\n    /* \"#utility.yul\":545:688   */\ntag_12:\n    /* \"#utility.yul\":602:607   */\n  0x00\n    /* \"#utility.yul\":633:639   */\n  dup2\n    /* \"#utility.yul\":627:640   */\n  mload\n    /* \"#utility.yul\":618:640   */\n  swap1\n  pop\n    /* \"#utility.yul\":649:682   */\n  tag_26\n    /* \"#utility.yul\":676:681   */\n  dup2\n    /* \"#utility.yul\":649:682   */\n  tag_11\n  jump\t// in\ntag_26:\n    /* \"#utility.yul\":545:688   */\n  swap3\n  swap2\n  pop\n  pop\n  jump\t// out\n    /* \"#utility.yul\":694:820   */\ntag_13:\n    /* \"#utility.yul\":731:738   */\n  0x00\n    /* \"#utility.yul\":771:813   */\n  0xffffffffffffffffffffffffffffffffffffffff\n    /* \"#utility.yul\":764:769   */\n  dup3\n    /* \"#utility.yul\":760:814   */\n  and\n    /* \"#utility.yul\":749:814   */\n  swap1\n  pop\n    /* \"#utility.yul\":694:820   */\n  swap2\n  swap1\n  pop\n  jump\t// out\n    /* \"#utility.yul\":826:922   */\ntag_14:\n    /* \"#utility.yul\":863:870   */\n  0x00\n    /* \"#utility.yul\":892:916   */\n  tag_29\n    /* \"#utility.yul\":910:915   */\n  dup3\n    /* \"#utility.yul\":892:916   */\n  tag_13\n  jump\t// in\ntag_29:\n    /* \"#utility.yul\":881:916   */\n  swap1\n  pop\n    /* \"#utility.yul\":826:922   */\n  swap2\n  swap1\n  pop\n  jump\t// out\n    /* \"#utility.yul\":928:1050   */\ntag_15:\n    /* \"#utility.yul\":1001:1025   */\n  tag_31\n    /* \"#utility.yul\":1019:1024   */\n  dup2\n    /* \"#utility.yul\":1001:1025   */\n  tag_14\n  jump\t// in\ntag_31:\n    /* \"#utility.yul\":994:999   */\n  dup2\n    /* \"#utility.yul\":991:1026   */\n  eq\n    /* \"#utility.yul\":981:1044   */\n  tag_32\n  jumpi\n    /* \"#utility.yul\":1040:1041   */\n  0x00\n    /* \"#utility.yul\":1037:1038   */\n  dup1\n    /* \"#utility.yul\":1030:1042   */\n  revert\n    /* \"#utility.yul\":981:1044   */\ntag_32:\n    /* \"#utility.yul\":928:1050   */\n  pop\n  jump\t// out\n    /* \"#utility.yul\":1056:1199   */\ntag_16:\n    /* \"#utility.yul\":1113:1118   */\n  0x00\n    /* \"#utility.yul\":1144:1150   */\n  dup2\n    /* \"#utility.yul\":1138:1151   */\n  mload\n    /* \"#utility.yul\":1129:1151   */\n  swap1\n  pop\n    /* \"#utility.yul\":1160:1193   */\n  tag_34\n    /* \"#utility.yul\":1187:1192   */\n  dup2\n    /* \"#utility.yul\":1160:1193   */\n  tag_15\n  jump\t// in\ntag_34:\n    /* \"#utility.yul\":1056:1199   */\n  swap3\n  swap2\n  pop\n  pop\n  jump\t// out\n    /* \"#utility.yul\":1205:1712   */\ntag_3:\n    /* \"#utility.yul\":1284:1290   */\n  0x00\n    /* \"#utility.yul\":1292:1298   */\n  dup1\n    /* \"#utility.yul\":1341:1343   */\n  0x40\n    /* \"#utility.yul\":1329:1338   */\n  dup4\n    /* \"#utility.yul\":1320:1327   */\n  dup6\n    /* \"#utility.yul\":1316:1339   */\n  sub\n    /* \"#utility.yul\":1312:1344   */\n  slt\n    /* \"#utility.yul\":1309:1428   */\n  iszero\n  tag_36\n  jumpi\n    /* \"#utility.yul\":1347:1426   */\n  tag_37\n  tag_8\n  jump\t// in\ntag_37:\n    /* \"#utility.yul\":1309:1428   */\ntag_36:\n    /* \"#utility.yul\":1467:1468   */\n  0x00\n    /* \"#utility.yul\":1492:1556   */\n  tag_38\n    /* \"#utility.yul\":1548:1555   */\n  dup6\n    /* \"#utility.yul\":1539:1545   */\n  dup3\n    /* \"#utility.yul\":1528:1537   */\n  dup7\n    /* \"#utility.yul\":1524:1546   */\n  add\n    /* \"#utility.yul\":1492:1556   */\n  tag_12\n  jump\t// in\ntag_38:\n    /* \"#utility.yul\":1482:1556   */\n  swap3\n  pop\n    /* \"#utility.yul\":1438:1566   */\n  pop\n    /* \"#utility.yul\":1605:1607   */\n  0x20\n    /* \"#utility.yul\":1631:1695   */\n  tag_39\n    /* \"#utility.yul\":1687:1694   */\n  dup6\n    /* \"#utility.yul\":1678:1684   */\n  dup3\n    /* \"#utility.yul\":1667:1676   */\n  dup7\n    /* \"#utility.yul\":1663:1685   */\n  add\n    /* \"#utility.yul\":1631:1695   */\n  tag_16\n  jump\t// in\ntag_39:\n    /* \"#utility.yul\":1621:1695   */\n  swap2\n  pop\n    /* \"#utility.yul\":1576:1705   */\n  pop\n    /* \"#utility.yul\":1205:1712   */\n  swap3\n  pop\n  swap3\n  swap1\n  pop\n  jump\t// out\n    /* \"Campaign.sol\":792:3927  contract Campaign {... */\ntag_6:\n  dataSize(sub_0)\n  dup1\n  dataOffset(sub_0)\n  0x00\n  codecopy\n  0x00\n  return\nstop\n\nsub_0: assembly {\n        /* \"Campaign.sol\":792:3927  contract Campaign {... */\n      mstore(0x40, 0x80)\n      jumpi(tag_1, lt(calldatasize, 0x04))\n      shr(0xe0, calldataload(0x00))\n      dup1\n      0x82fde093\n      gt\n      tag_11\n      jumpi\n      dup1\n      0x82fde093\n      eq\n      tag_6\n      jumpi\n      dup1\n      0x8a9cfd55\n      eq\n      tag_7\n      jumpi\n      dup1\n      0xaaffadf3\n      eq\n      tag_8\n      jumpi\n      dup1\n      0xd7bb99ba\n      eq\n      tag_9\n      jumpi\n      dup1\n      0xd7d1bbdb\n      eq\n      tag_10\n      jumpi\n      jump(tag_1)\n    tag_11:\n      dup1\n      0x03441006\n      eq\n      tag_2\n      jumpi\n      dup1\n      0x0a144391\n      eq\n      tag_3\n      jumpi\n      dup1\n      0x481c6a75\n      eq\n      tag_4\n      jumpi\n      dup1\n      0x81d12c58\n      eq\n      tag_5\n      jumpi\n    tag_1:\n      0x00\n      dup1\n      revert\n        /* \"Campaign.sol\":3627:3924  function finalizeRequest(uint index) public restrictManager {... */\n    tag_2:\n      callvalue\n      dup1\n      iszero\n      tag_12\n      jumpi\n      0x00\n      dup1\n      revert\n    tag_12:\n      pop\n      tag_13\n      0x04\n      dup1\n      calldatasize\n      sub\n      dup2\n      add\n      swap1\n      tag_14\n      swap2\n      swap1\n      tag_15\n      jump\t// in\n    tag_14:\n      tag_16\n      jump\t// in\n    tag_13:\n      stop\n        /* \"Campaign.sol\":1603:1644  mapping(address => bool) public approvers */\n    tag_3:\n      callvalue\n      dup1\n      iszero\n      tag_17\n      jumpi\n      0x00\n      dup1\n      revert\n    tag_17:\n      pop\n      tag_18\n      0x04\n      dup1\n      calldatasize\n      sub\n      dup2\n      add\n      swap1\n      tag_19\n      swap2\n      swap1\n      tag_20\n      jump\t// in\n    tag_19:\n      tag_21\n      jump\t// in\n    tag_18:\n      mload(0x40)\n      tag_22\n      swap2\n      swap1\n      tag_23\n      jump\t// in\n    tag_22:\n      mload(0x40)\n      dup1\n      swap2\n      sub\n      swap1\n      return\n        /* \"Campaign.sol\":1544:1566  address public manager */\n    tag_4:\n      callvalue\n      dup1\n      iszero\n      tag_24\n      jumpi\n      0x00\n      dup1\n      revert\n    tag_24:\n      pop\n      tag_25\n      tag_26\n      jump\t// in\n    tag_25:\n      mload(0x40)\n      tag_27\n      swap2\n      swap1\n      tag_28\n      jump\t// in\n    tag_27:\n      mload(0x40)\n      dup1\n      swap2\n      sub\n      swap1\n      return\n        /* \"Campaign.sol\":1449:1474  Request[] public requests */\n    tag_5:\n      callvalue\n      dup1\n      iszero\n      tag_29\n      jumpi\n      0x00\n      dup1\n      revert\n    tag_29:\n      pop\n      tag_30\n      0x04\n      dup1\n      calldatasize\n      sub\n      dup2\n      add\n      swap1\n      tag_31\n      swap2\n      swap1\n      tag_15\n      jump\t// in\n    tag_31:\n      tag_32\n      jump\t// in\n    tag_30:\n      mload(0x40)\n      tag_33\n      swap6\n      swap5\n      swap4\n      swap3\n      swap2\n      swap1\n      tag_34\n      jump\t// in\n    tag_33:\n      mload(0x40)\n      dup1\n      swap2\n      sub\n      swap1\n      return\n        /* \"Campaign.sol\":1675:1701  uint public approversCount */\n    tag_6:\n      callvalue\n      dup1\n      iszero\n      tag_35\n      jumpi\n      0x00\n      dup1\n      revert\n    tag_35:\n      pop\n      tag_36\n      tag_37\n      jump\t// in\n    tag_36:\n      mload(0x40)\n      tag_38\n      swap2\n      swap1\n      tag_39\n      jump\t// in\n    tag_38:\n      mload(0x40)\n      dup1\n      swap2\n      sub\n      swap1\n      return\n        /* \"Campaign.sol\":2660:3072  function createRequest(string memory description, uint value, address payable recipient) ... */\n    tag_7:\n      callvalue\n      dup1\n      iszero\n      tag_40\n      jumpi\n      0x00\n      dup1\n      revert\n    tag_40:\n      pop\n      tag_41\n      0x04\n      dup1\n      calldatasize\n      sub\n      dup2\n      add\n      swap1\n      tag_42\n      swap2\n      swap1\n      tag_43\n      jump\t// in\n    tag_42:\n      tag_44\n      jump\t// in\n    tag_41:\n      stop\n        /* \"Campaign.sol\":1571:1598  uint public minContribution */\n    tag_8:\n      callvalue\n      dup1\n      iszero\n      tag_45\n      jumpi\n      0x00\n      dup1\n      revert\n    tag_45:\n      pop\n      tag_46\n      tag_47\n      jump\t// in\n    tag_46:\n      mload(0x40)\n      tag_48\n      swap2\n      swap1\n      tag_39\n      jump\t// in\n    tag_48:\n      mload(0x40)\n      dup1\n      swap2\n      sub\n      swap1\n      return\n        /* \"Campaign.sol\":2266:2552  function contribute() public payable {... */\n    tag_9:\n      tag_49\n      tag_50\n      jump\t// in\n    tag_49:\n      stop\n        /* \"Campaign.sol\":3130:3524  function approveRequest(uint index) public restrictApprover {... */\n    tag_10:\n      callvalue\n      dup1\n      iszero\n      tag_51\n      jumpi\n      0x00\n      dup1\n      revert\n    tag_51:\n      pop\n      tag_52\n      0x04\n      dup1\n      calldatasize\n      sub\n      dup2\n      add\n      swap1\n      tag_53\n      swap2\n      swap1\n      tag_15\n      jump\t// in\n    tag_53:\n      tag_54\n      jump\t// in\n    tag_52:\n      stop\n        /* \"Campaign.sol\":3627:3924  function finalizeRequest(uint index) public restrictManager {... */\n    tag_16:\n        /* \"Campaign.sol\":1914:1921  manager */\n      0x01\n      0x00\n      swap1\n      sload\n      swap1\n      0x0100\n      exp\n      swap1\n      div\n      0xffffffffffffffffffffffffffffffffffffffff\n      and\n        /* \"Campaign.sol\":1900:1921  msg.sender == manager */\n      0xffffffffffffffffffffffffffffffffffffffff\n      and\n        /* \"Campaign.sol\":1900:1910  msg.sender */\n      caller\n        /* \"Campaign.sol\":1900:1921  msg.sender == manager */\n      0xffffffffffffffffffffffffffffffffffffffff\n      and\n      eq\n        /* \"Campaign.sol\":1892:1922  require(msg.sender == manager) */\n      tag_56\n      jumpi\n      0x00\n      dup1\n      revert\n    tag_56:\n        /* \"Campaign.sol\":3694:3717  Request storage request */\n      0x00\n        /* \"Campaign.sol\":3720:3728  requests */\n      dup1\n        /* \"Campaign.sol\":3729:3734  index */\n      dup3\n        /* \"Campaign.sol\":3720:3735  requests[index] */\n      dup2\n      sload\n      dup2\n      lt\n      tag_58\n      jumpi\n      tag_59\n      tag_60\n      jump\t// in\n    tag_59:\n    tag_58:\n      swap1\n      0x00\n      mstore\n      keccak256(0x00, 0x20)\n      swap1\n      0x05\n      mul\n      add\n        /* \"Campaign.sol\":3694:3735  Request storage request = requests[index] */\n      swap1\n      pop\n        /* \"Campaign.sol\":3753:3760  request */\n      dup1\n        /* \"Campaign.sol\":3753:3769  request.complete */\n      0x02\n      add\n      0x14\n      swap1\n      sload\n      swap1\n      0x0100\n      exp\n      swap1\n      div\n      0xff\n      and\n        /* \"Campaign.sol\":3752:3769  !request.complete */\n      iszero\n        /* \"Campaign.sol\":3744:3770  require(!request.complete) */\n      tag_62\n      jumpi\n      0x00\n      dup1\n      revert\n    tag_62:\n        /* \"Campaign.sol\":3827:3828  2 */\n      0x02\n        /* \"Campaign.sol\":3810:3824  approversCount */\n      sload(0x04)\n        /* \"Campaign.sol\":3810:3828  approversCount / 2 */\n      tag_63\n      swap2\n      swap1\n      tag_64\n      jump\t// in\n    tag_63:\n        /* \"Campaign.sol\":3785:3792  request */\n      dup2\n        /* \"Campaign.sol\":3785:3806  request.approvalCount */\n      0x03\n      add\n      sload\n        /* \"Campaign.sol\":3785:3829  request.approvalCount > (approversCount / 2) */\n      gt\n        /* \"Campaign.sol\":3777:3830  require(request.approvalCount > (approversCount / 2)) */\n      tag_65\n      jumpi\n      0x00\n      dup1\n      revert\n    tag_65:\n        /* \"Campaign.sol\":3839:3846  request */\n      dup1\n        /* \"Campaign.sol\":3839:3856  request.recipient */\n      0x02\n      add\n      0x00\n      swap1\n      sload\n      swap1\n      0x0100\n      exp\n      swap1\n      div\n      0xffffffffffffffffffffffffffffffffffffffff\n      and\n        /* \"Campaign.sol\":3839:3865  request.recipient.transfer */\n      0xffffffffffffffffffffffffffffffffffffffff\n      and\n        /* \"Campaign.sol\":3839:3880  request.recipient.transfer(request.value) */\n      0x08fc\n        /* \"Campaign.sol\":3866:3873  request */\n      dup3\n        /* \"Campaign.sol\":3866:3879  request.value */\n      0x01\n      add\n      sload\n        /* \"Campaign.sol\":3839:3880  request.recipient.transfer(request.value) */\n      swap1\n      dup2\n      iszero\n      mul\n      swap1\n      mload(0x40)\n      0x00\n      mload(0x40)\n      dup1\n      dup4\n      sub\n      dup2\n      dup6\n      dup9\n      dup9\n      call\n      swap4\n      pop\n      pop\n      pop\n      pop\n      iszero\n      dup1\n      iszero\n      tag_67\n      jumpi\n      returndatasize\n      0x00\n      dup1\n      returndatacopy\n      revert(0x00, returndatasize)\n    tag_67:\n      pop\n        /* \"Campaign.sol\":3914:3918  true */\n      0x01\n        /* \"Campaign.sol\":3887:3895  requests */\n      0x00\n        /* \"Campaign.sol\":3896:3901  index */\n      dup4\n        /* \"Campaign.sol\":3887:3902  requests[index] */\n      dup2\n      sload\n      dup2\n      lt\n      tag_68\n      jumpi\n      tag_69\n      tag_60\n      jump\t// in\n    tag_69:\n    tag_68:\n      swap1\n      0x00\n      mstore\n      keccak256(0x00, 0x20)\n      swap1\n      0x05\n      mul\n      add\n        /* \"Campaign.sol\":3887:3911  requests[index].complete */\n      0x02\n      add\n      0x14\n        /* \"Campaign.sol\":3887:3918  requests[index].complete = true */\n      0x0100\n      exp\n      dup2\n      sload\n      dup2\n      0xff\n      mul\n      not\n      and\n      swap1\n      dup4\n      iszero\n      iszero\n      mul\n      or\n      swap1\n      sstore\n      pop\n        /* \"Campaign.sol\":3687:3924  {... */\n      pop\n        /* \"Campaign.sol\":3627:3924  function finalizeRequest(uint index) public restrictManager {... */\n      pop\n      jump\t// out\n        /* \"Campaign.sol\":1603:1644  mapping(address => bool) public approvers */\n    tag_21:\n      mstore(0x20, 0x03)\n      dup1\n      0x00\n      mstore\n      keccak256(0x00, 0x40)\n      0x00\n      swap2\n      pop\n      sload\n      swap1\n      0x0100\n      exp\n      swap1\n      div\n      0xff\n      and\n      dup2\n      jump\t// out\n        /* \"Campaign.sol\":1544:1566  address public manager */\n    tag_26:\n      0x01\n      0x00\n      swap1\n      sload\n      swap1\n      0x0100\n      exp\n      swap1\n      div\n      0xffffffffffffffffffffffffffffffffffffffff\n      and\n      dup2\n      jump\t// out\n        /* \"Campaign.sol\":1449:1474  Request[] public requests */\n    tag_32:\n      0x00\n      dup2\n      dup2\n      sload\n      dup2\n      lt\n      tag_71\n      jumpi\n      0x00\n      dup1\n      revert\n    tag_71:\n      swap1\n      0x00\n      mstore\n      keccak256(0x00, 0x20)\n      swap1\n      0x05\n      mul\n      add\n      0x00\n      swap2\n      pop\n      swap1\n      pop\n      dup1\n      0x00\n      add\n      dup1\n      sload\n      tag_73\n      swap1\n      tag_74\n      jump\t// in\n    tag_73:\n      dup1\n      0x1f\n      add\n      0x20\n      dup1\n      swap2\n      div\n      mul\n      0x20\n      add\n      mload(0x40)\n      swap1\n      dup2\n      add\n      0x40\n      mstore\n      dup1\n      swap3\n      swap2\n      swap1\n      dup2\n      dup2\n      mstore\n      0x20\n      add\n      dup3\n      dup1\n      sload\n      tag_75\n      swap1\n      tag_74\n      jump\t// in\n    tag_75:\n      dup1\n      iszero\n      tag_76\n      jumpi\n      dup1\n      0x1f\n      lt\n      tag_77\n      jumpi\n      0x0100\n      dup1\n      dup4\n      sload\n      div\n      mul\n      dup4\n      mstore\n      swap2\n      0x20\n      add\n      swap2\n      jump(tag_76)\n    tag_77:\n      dup3\n      add\n      swap2\n      swap1\n      0x00\n      mstore\n      keccak256(0x00, 0x20)\n      swap1\n    tag_78:\n      dup2\n      sload\n      dup2\n      mstore\n      swap1\n      0x01\n      add\n      swap1\n      0x20\n      add\n      dup1\n      dup4\n      gt\n      tag_78\n      jumpi\n      dup3\n      swap1\n      sub\n      0x1f\n      and\n      dup3\n      add\n      swap2\n    tag_76:\n      pop\n      pop\n      pop\n      pop\n      pop\n      swap1\n      dup1\n      0x01\n      add\n      sload\n      swap1\n      dup1\n      0x02\n      add\n      0x00\n      swap1\n      sload\n      swap1\n      0x0100\n      exp\n      swap1\n      div\n      0xffffffffffffffffffffffffffffffffffffffff\n      and\n      swap1\n      dup1\n      0x02\n      add\n      0x14\n      swap1\n      sload\n      swap1\n      0x0100\n      exp\n      swap1\n      div\n      0xff\n      and\n      swap1\n      dup1\n      0x03\n      add\n      sload\n      swap1\n      pop\n      dup6\n      jump\t// out\n        /* \"Campaign.sol\":1675:1701  uint public approversCount */\n    tag_37:\n      sload(0x04)\n      dup2\n      jump\t// out\n        /* \"Campaign.sol\":2660:3072  function createRequest(string memory description, uint value, address payable recipient) ... */\n    tag_44:\n        /* \"Campaign.sol\":1914:1921  manager */\n      0x01\n      0x00\n      swap1\n      sload\n      swap1\n      0x0100\n      exp\n      swap1\n      div\n      0xffffffffffffffffffffffffffffffffffffffff\n      and\n        /* \"Campaign.sol\":1900:1921  msg.sender == manager */\n      0xffffffffffffffffffffffffffffffffffffffff\n      and\n        /* \"Campaign.sol\":1900:1910  msg.sender */\n      caller\n        /* \"Campaign.sol\":1900:1921  msg.sender == manager */\n      0xffffffffffffffffffffffffffffffffffffffff\n      and\n      eq\n        /* \"Campaign.sol\":1892:1922  require(msg.sender == manager) */\n      tag_80\n      jumpi\n      0x00\n      dup1\n      revert\n    tag_80:\n        /* \"Campaign.sol\":2789:2815  Request storage newRequest */\n      0x00\n        /* \"Campaign.sol\":2818:2826  requests */\n      dup1\n        /* \"Campaign.sol\":2818:2833  requests.push() */\n      0x01\n      dup2\n      0x01\n      dup2\n      sload\n      add\n      dup1\n      dup3\n      sstore\n      dup1\n      swap2\n      pop\n      pop\n      sub\n      swap1\n      0x00\n      mstore\n      keccak256(0x00, 0x20)\n      swap1\n      0x05\n      mul\n      add\n        /* \"Campaign.sol\":2789:2833  Request storage newRequest = requests.push() */\n      swap1\n      pop\n        /* \"Campaign.sol\":2916:2927  description */\n      dup4\n        /* \"Campaign.sol\":2891:2901  newRequest */\n      dup2\n        /* \"Campaign.sol\":2891:2913  newRequest.description */\n      0x00\n      add\n        /* \"Campaign.sol\":2891:2927  newRequest.description = description */\n      swap1\n      dup2\n      tag_83\n      swap2\n      swap1\n      tag_84\n      jump\t// in\n    tag_83:\n      pop\n        /* \"Campaign.sol\":2953:2958  value */\n      dup3\n        /* \"Campaign.sol\":2934:2944  newRequest */\n      dup2\n        /* \"Campaign.sol\":2934:2950  newRequest.value */\n      0x01\n      add\n        /* \"Campaign.sol\":2934:2958  newRequest.value = value */\n      dup2\n      swap1\n      sstore\n      pop\n        /* \"Campaign.sol\":2988:2997  recipient */\n      dup2\n        /* \"Campaign.sol\":2965:2975  newRequest */\n      dup2\n        /* \"Campaign.sol\":2965:2985  newRequest.recipient */\n      0x02\n      add\n      0x00\n        /* \"Campaign.sol\":2965:2997  newRequest.recipient = recipient */\n      0x0100\n      exp\n      dup2\n      sload\n      dup2\n      0xffffffffffffffffffffffffffffffffffffffff\n      mul\n      not\n      and\n      swap1\n      dup4\n      0xffffffffffffffffffffffffffffffffffffffff\n      and\n      mul\n      or\n      swap1\n      sstore\n      pop\n        /* \"Campaign.sol\":3026:3031  false */\n      0x00\n        /* \"Campaign.sol\":3004:3014  newRequest */\n      dup2\n        /* \"Campaign.sol\":3004:3023  newRequest.complete */\n      0x02\n      add\n      0x14\n        /* \"Campaign.sol\":3004:3031  newRequest.complete = false */\n      0x0100\n      exp\n      dup2\n      sload\n      dup2\n      0xff\n      mul\n      not\n      and\n      swap1\n      dup4\n      iszero\n      iszero\n      mul\n      or\n      swap1\n      sstore\n      pop\n        /* \"Campaign.sol\":3065:3066  0 */\n      0x00\n        /* \"Campaign.sol\":3038:3048  newRequest */\n      dup2\n        /* \"Campaign.sol\":3038:3062  newRequest.approvalCount */\n      0x03\n      add\n        /* \"Campaign.sol\":3038:3066  newRequest.approvalCount = 0 */\n      dup2\n      swap1\n      sstore\n      pop\n        /* \"Campaign.sol\":2780:3072  {... */\n      pop\n        /* \"Campaign.sol\":2660:3072  function createRequest(string memory description, uint value, address payable recipient) ... */\n      pop\n      pop\n      pop\n      jump\t// out\n        /* \"Campaign.sol\":1571:1598  uint public minContribution */\n    tag_47:\n      sload(0x02)\n      dup2\n      jump\t// out\n        /* \"Campaign.sol\":2266:2552  function contribute() public payable {... */\n    tag_50:\n        /* \"Campaign.sol\":2330:2345  minContribution */\n      sload(0x02)\n        /* \"Campaign.sol\":2318:2327  msg.value */\n      callvalue\n        /* \"Campaign.sol\":2318:2345  msg.value > minContribution */\n      gt\n        /* \"Campaign.sol\":2310:2346  require(msg.value > minContribution) */\n      tag_86\n      jumpi\n      0x00\n      dup1\n      revert\n    tag_86:\n        /* \"Campaign.sol\":2379:2383  true */\n      0x01\n        /* \"Campaign.sol\":2355:2364  approvers */\n      0x03\n        /* \"Campaign.sol\":2355:2376  approvers[msg.sender] */\n      0x00\n        /* \"Campaign.sol\":2365:2375  msg.sender */\n      caller\n        /* \"Campaign.sol\":2355:2376  approvers[msg.sender] */\n      0xffffffffffffffffffffffffffffffffffffffff\n      and\n      0xffffffffffffffffffffffffffffffffffffffff\n      and\n      dup2\n      mstore\n      0x20\n      add\n      swap1\n      dup2\n      mstore\n      0x20\n      add\n      0x00\n      keccak256\n      0x00\n        /* \"Campaign.sol\":2355:2383  approvers[msg.sender] = true */\n      0x0100\n      exp\n      dup2\n      sload\n      dup2\n      0xff\n      mul\n      not\n      and\n      swap1\n      dup4\n      iszero\n      iszero\n      mul\n      or\n      swap1\n      sstore\n      pop\n        /* \"Campaign.sol\":2445:2459  approversCount */\n      0x04\n      0x00\n        /* \"Campaign.sol\":2445:2461  approversCount++ */\n      dup2\n      sload\n      dup1\n      swap3\n      swap2\n      swap1\n      tag_87\n      swap1\n      tag_88\n      jump\t// in\n    tag_87:\n      swap2\n      swap1\n      pop\n      sstore\n      pop\n        /* \"Campaign.sol\":2266:2552  function contribute() public payable {... */\n      jump\t// out\n        /* \"Campaign.sol\":3130:3524  function approveRequest(uint index) public restrictApprover {... */\n    tag_54:\n        /* \"Campaign.sol\":2032:2041  approvers */\n      0x03\n        /* \"Campaign.sol\":2032:2053  approvers[msg.sender] */\n      0x00\n        /* \"Campaign.sol\":2042:2052  msg.sender */\n      caller\n        /* \"Campaign.sol\":2032:2053  approvers[msg.sender] */\n      0xffffffffffffffffffffffffffffffffffffffff\n      and\n      0xffffffffffffffffffffffffffffffffffffffff\n      and\n      dup2\n      mstore\n      0x20\n      add\n      swap1\n      dup2\n      mstore\n      0x20\n      add\n      0x00\n      keccak256\n      0x00\n      swap1\n      sload\n      swap1\n      0x0100\n      exp\n      swap1\n      div\n      0xff\n      and\n        /* \"Campaign.sol\":2024:2054  require(approvers[msg.sender]) */\n      tag_90\n      jumpi\n      0x00\n      dup1\n      revert\n    tag_90:\n        /* \"Campaign.sol\":3197:3220  Request storage request */\n      0x00\n        /* \"Campaign.sol\":3223:3231  requests */\n      dup1\n        /* \"Campaign.sol\":3232:3237  index */\n      dup3\n        /* \"Campaign.sol\":3223:3238  requests[index] */\n      dup2\n      sload\n      dup2\n      lt\n      tag_92\n      jumpi\n      tag_93\n      tag_60\n      jump\t// in\n    tag_93:\n    tag_92:\n      swap1\n      0x00\n      mstore\n      keccak256(0x00, 0x20)\n      swap1\n      0x05\n      mul\n      add\n        /* \"Campaign.sol\":3197:3238  Request storage request = requests[index] */\n      swap1\n      pop\n        /* \"Campaign.sol\":3256:3263  request */\n      dup1\n        /* \"Campaign.sol\":3256:3273  request.approvals */\n      0x04\n      add\n        /* \"Campaign.sol\":3256:3285  request.approvals[msg.sender] */\n      0x00\n        /* \"Campaign.sol\":3274:3284  msg.sender */\n      caller\n        /* \"Campaign.sol\":3256:3285  request.approvals[msg.sender] */\n      0xffffffffffffffffffffffffffffffffffffffff\n      and\n      0xffffffffffffffffffffffffffffffffffffffff\n      and\n      dup2\n      mstore\n      0x20\n      add\n      swap1\n      dup2\n      mstore\n      0x20\n      add\n      0x00\n      keccak256\n      0x00\n      swap1\n      sload\n      swap1\n      0x0100\n      exp\n      swap1\n      div\n      0xff\n      and\n        /* \"Campaign.sol\":3255:3285  !request.approvals[msg.sender] */\n      iszero\n        /* \"Campaign.sol\":3247:3286  require(!request.approvals[msg.sender]) */\n      tag_95\n      jumpi\n      0x00\n      dup1\n      revert\n    tag_95:\n        /* \"Campaign.sol\":3417:3421  true */\n      0x01\n        /* \"Campaign.sol\":3385:3392  request */\n      dup2\n        /* \"Campaign.sol\":3385:3402  request.approvals */\n      0x04\n      add\n        /* \"Campaign.sol\":3385:3414  request.approvals[msg.sender] */\n      0x00\n        /* \"Campaign.sol\":3403:3413  msg.sender */\n      caller\n        /* \"Campaign.sol\":3385:3414  request.approvals[msg.sender] */\n      0xffffffffffffffffffffffffffffffffffffffff\n      and\n      0xffffffffffffffffffffffffffffffffffffffff\n      and\n      dup2\n      mstore\n      0x20\n      add\n      swap1\n      dup2\n      mstore\n      0x20\n      add\n      0x00\n      keccak256\n      0x00\n        /* \"Campaign.sol\":3385:3421  request.approvals[msg.sender] = true */\n      0x0100\n      exp\n      dup2\n      sload\n      dup2\n      0xff\n      mul\n      not\n      and\n      swap1\n      dup4\n      iszero\n      iszero\n      mul\n      or\n      swap1\n      sstore\n      pop\n        /* \"Campaign.sol\":3462:3469  request */\n      dup1\n        /* \"Campaign.sol\":3462:3483  request.approvalCount */\n      0x03\n      add\n      0x00\n        /* \"Campaign.sol\":3462:3485  request.approvalCount++ */\n      dup2\n      sload\n      dup1\n      swap3\n      swap2\n      swap1\n      tag_96\n      swap1\n      tag_88\n      jump\t// in\n    tag_96:\n      swap2\n      swap1\n      pop\n      sstore\n      pop\n        /* \"Campaign.sol\":3190:3524  {... */\n      pop\n        /* \"Campaign.sol\":3130:3524  function approveRequest(uint index) public restrictApprover {... */\n      pop\n      jump\t// out\n        /* \"#utility.yul\":7:82   */\n    tag_97:\n        /* \"#utility.yul\":40:46   */\n      0x00\n        /* \"#utility.yul\":73:75   */\n      0x40\n        /* \"#utility.yul\":67:76   */\n      mload\n        /* \"#utility.yul\":57:76   */\n      swap1\n      pop\n        /* \"#utility.yul\":7:82   */\n      swap1\n      jump\t// out\n        /* \"#utility.yul\":88:205   */\n    tag_98:\n        /* \"#utility.yul\":197:198   */\n      0x00\n        /* \"#utility.yul\":194:195   */\n      dup1\n        /* \"#utility.yul\":187:199   */\n      revert\n        /* \"#utility.yul\":211:328   */\n    tag_99:\n        /* \"#utility.yul\":320:321   */\n      0x00\n        /* \"#utility.yul\":317:318   */\n      dup1\n        /* \"#utility.yul\":310:322   */\n      revert\n        /* \"#utility.yul\":334:411   */\n    tag_100:\n        /* \"#utility.yul\":371:378   */\n      0x00\n        /* \"#utility.yul\":400:405   */\n      dup2\n        /* \"#utility.yul\":389:405   */\n      swap1\n      pop\n        /* \"#utility.yul\":334:411   */\n      swap2\n      swap1\n      pop\n      jump\t// out\n        /* \"#utility.yul\":417:539   */\n    tag_101:\n        /* \"#utility.yul\":490:514   */\n      tag_153\n        /* \"#utility.yul\":508:513   */\n      dup2\n        /* \"#utility.yul\":490:514   */\n      tag_100\n      jump\t// in\n    tag_153:\n        /* \"#utility.yul\":483:488   */\n      dup2\n        /* \"#utility.yul\":480:515   */\n      eq\n        /* \"#utility.yul\":470:533   */\n      tag_154\n      jumpi\n        /* \"#utility.yul\":529:530   */\n      0x00\n        /* \"#utility.yul\":526:527   */\n      dup1\n        /* \"#utility.yul\":519:531   */\n      revert\n        /* \"#utility.yul\":470:533   */\n    tag_154:\n        /* \"#utility.yul\":417:539   */\n      pop\n      jump\t// out\n        /* \"#utility.yul\":545:684   */\n    tag_102:\n        /* \"#utility.yul\":591:596   */\n      0x00\n        /* \"#utility.yul\":629:635   */\n      dup2\n        /* \"#utility.yul\":616:636   */\n      calldataload\n        /* \"#utility.yul\":607:636   */\n      swap1\n      pop\n        /* \"#utility.yul\":645:678   */\n      tag_156\n        /* \"#utility.yul\":672:677   */\n      dup2\n        /* \"#utility.yul\":645:678   */\n      tag_101\n      jump\t// in\n    tag_156:\n        /* \"#utility.yul\":545:684   */\n      swap3\n      swap2\n      pop\n      pop\n      jump\t// out\n        /* \"#utility.yul\":690:1019   */\n    tag_15:\n        /* \"#utility.yul\":749:755   */\n      0x00\n        /* \"#utility.yul\":798:800   */\n      0x20\n        /* \"#utility.yul\":786:795   */\n      dup3\n        /* \"#utility.yul\":777:784   */\n      dup5\n        /* \"#utility.yul\":773:796   */\n      sub\n        /* \"#utility.yul\":769:801   */\n      slt\n        /* \"#utility.yul\":766:885   */\n      iszero\n      tag_158\n      jumpi\n        /* \"#utility.yul\":804:883   */\n      tag_159\n      tag_98\n      jump\t// in\n    tag_159:\n        /* \"#utility.yul\":766:885   */\n    tag_158:\n        /* \"#utility.yul\":924:925   */\n      0x00\n        /* \"#utility.yul\":949:1002   */\n      tag_160\n        /* \"#utility.yul\":994:1001   */\n      dup5\n        /* \"#utility.yul\":985:991   */\n      dup3\n        /* \"#utility.yul\":974:983   */\n      dup6\n        /* \"#utility.yul\":970:992   */\n      add\n        /* \"#utility.yul\":949:1002   */\n      tag_102\n      jump\t// in\n    tag_160:\n        /* \"#utility.yul\":939:1002   */\n      swap2\n      pop\n        /* \"#utility.yul\":895:1012   */\n      pop\n        /* \"#utility.yul\":690:1019   */\n      swap3\n      swap2\n      pop\n      pop\n      jump\t// out\n        /* \"#utility.yul\":1025:1151   */\n    tag_103:\n        /* \"#utility.yul\":1062:1069   */\n      0x00\n        /* \"#utility.yul\":1102:1144   */\n      0xffffffffffffffffffffffffffffffffffffffff\n        /* \"#utility.yul\":1095:1100   */\n      dup3\n        /* \"#utility.yul\":1091:1145   */\n      and\n        /* \"#utility.yul\":1080:1145   */\n      swap1\n      pop\n        /* \"#utility.yul\":1025:1151   */\n      swap2\n      swap1\n      pop\n      jump\t// out\n        /* \"#utility.yul\":1157:1253   */\n    tag_104:\n        /* \"#utility.yul\":1194:1201   */\n      0x00\n        /* \"#utility.yul\":1223:1247   */\n      tag_163\n        /* \"#utility.yul\":1241:1246   */\n      dup3\n        /* \"#utility.yul\":1223:1247   */\n      tag_103\n      jump\t// in\n    tag_163:\n        /* \"#utility.yul\":1212:1247   */\n      swap1\n      pop\n        /* \"#utility.yul\":1157:1253   */\n      swap2\n      swap1\n      pop\n      jump\t// out\n        /* \"#utility.yul\":1259:1381   */\n    tag_105:\n        /* \"#utility.yul\":1332:1356   */\n      tag_165\n        /* \"#utility.yul\":1350:1355   */\n      dup2\n        /* \"#utility.yul\":1332:1356   */\n      tag_104\n      jump\t// in\n    tag_165:\n        /* \"#utility.yul\":1325:1330   */\n      dup2\n        /* \"#utility.yul\":1322:1357   */\n      eq\n        /* \"#utility.yul\":1312:1375   */\n      tag_166\n      jumpi\n        /* \"#utility.yul\":1371:1372   */\n      0x00\n        /* \"#utility.yul\":1368:1369   */\n      dup1\n        /* \"#utility.yul\":1361:1373   */\n      revert\n        /* \"#utility.yul\":1312:1375   */\n    tag_166:\n        /* \"#utility.yul\":1259:1381   */\n      pop\n      jump\t// out\n        /* \"#utility.yul\":1387:1526   */\n    tag_106:\n        /* \"#utility.yul\":1433:1438   */\n      0x00\n        /* \"#utility.yul\":1471:1477   */\n      dup2\n        /* \"#utility.yul\":1458:1478   */\n      calldataload\n        /* \"#utility.yul\":1449:1478   */\n      swap1\n      pop\n        /* \"#utility.yul\":1487:1520   */\n      tag_168\n        /* \"#utility.yul\":1514:1519   */\n      dup2\n        /* \"#utility.yul\":1487:1520   */\n      tag_105\n      jump\t// in\n    tag_168:\n        /* \"#utility.yul\":1387:1526   */\n      swap3\n      swap2\n      pop\n      pop\n      jump\t// out\n        /* \"#utility.yul\":1532:1861   */\n    tag_20:\n        /* \"#utility.yul\":1591:1597   */\n      0x00\n        /* \"#utility.yul\":1640:1642   */\n      0x20\n        /* \"#utility.yul\":1628:1637   */\n      dup3\n        /* \"#utility.yul\":1619:1626   */\n      dup5\n        /* \"#utility.yul\":1615:1638   */\n      sub\n        /* \"#utility.yul\":1611:1643   */\n      slt\n        /* \"#utility.yul\":1608:1727   */\n      iszero\n      tag_170\n      jumpi\n        /* \"#utility.yul\":1646:1725   */\n      tag_171\n      tag_98\n      jump\t// in\n    tag_171:\n        /* \"#utility.yul\":1608:1727   */\n    tag_170:\n        /* \"#utility.yul\":1766:1767   */\n      0x00\n        /* \"#utility.yul\":1791:1844   */\n      tag_172\n        /* \"#utility.yul\":1836:1843   */\n      dup5\n        /* \"#utility.yul\":1827:1833   */\n      dup3\n        /* \"#utility.yul\":1816:1825   */\n      dup6\n        /* \"#utility.yul\":1812:1834   */\n      add\n        /* \"#utility.yul\":1791:1844   */\n      tag_106\n      jump\t// in\n    tag_172:\n        /* \"#utility.yul\":1781:1844   */\n      swap2\n      pop\n        /* \"#utility.yul\":1737:1854   */\n      pop\n        /* \"#utility.yul\":1532:1861   */\n      swap3\n      swap2\n      pop\n      pop\n      jump\t// out\n        /* \"#utility.yul\":1867:1957   */\n    tag_107:\n        /* \"#utility.yul\":1901:1908   */\n      0x00\n        /* \"#utility.yul\":1944:1949   */\n      dup2\n        /* \"#utility.yul\":1937:1950   */\n      iszero\n        /* \"#utility.yul\":1930:1951   */\n      iszero\n        /* \"#utility.yul\":1919:1951   */\n      swap1\n      pop\n        /* \"#utility.yul\":1867:1957   */\n      swap2\n      swap1\n      pop\n      jump\t// out\n        /* \"#utility.yul\":1963:2072   */\n    tag_108:\n        /* \"#utility.yul\":2044:2065   */\n      tag_175\n        /* \"#utility.yul\":2059:2064   */\n      dup2\n        /* \"#utility.yul\":2044:2065   */\n      tag_107\n      jump\t// in\n    tag_175:\n        /* \"#utility.yul\":2039:2042   */\n      dup3\n        /* \"#utility.yul\":2032:2066   */\n      mstore\n        /* \"#utility.yul\":1963:2072   */\n      pop\n      pop\n      jump\t// out\n        /* \"#utility.yul\":2078:2288   */\n    tag_23:\n        /* \"#utility.yul\":2165:2169   */\n      0x00\n        /* \"#utility.yul\":2203:2205   */\n      0x20\n        /* \"#utility.yul\":2192:2201   */\n      dup3\n        /* \"#utility.yul\":2188:2206   */\n      add\n        /* \"#utility.yul\":2180:2206   */\n      swap1\n      pop\n        /* \"#utility.yul\":2216:2281   */\n      tag_177\n        /* \"#utility.yul\":2278:2279   */\n      0x00\n        /* \"#utility.yul\":2267:2276   */\n      dup4\n        /* \"#utility.yul\":2263:2280   */\n      add\n        /* \"#utility.yul\":2254:2260   */\n      dup5\n        /* \"#utility.yul\":2216:2281   */\n      tag_108\n      jump\t// in\n    tag_177:\n        /* \"#utility.yul\":2078:2288   */\n      swap3\n      swap2\n      pop\n      pop\n      jump\t// out\n        /* \"#utility.yul\":2294:2412   */\n    tag_109:\n        /* \"#utility.yul\":2381:2405   */\n      tag_179\n        /* \"#utility.yul\":2399:2404   */\n      dup2\n        /* \"#utility.yul\":2381:2405   */\n      tag_104\n      jump\t// in\n    tag_179:\n        /* \"#utility.yul\":2376:2379   */\n      dup3\n        /* \"#utility.yul\":2369:2406   */\n      mstore\n        /* \"#utility.yul\":2294:2412   */\n      pop\n      pop\n      jump\t// out\n        /* \"#utility.yul\":2418:2640   */\n    tag_28:\n        /* \"#utility.yul\":2511:2515   */\n      0x00\n        /* \"#utility.yul\":2549:2551   */\n      0x20\n        /* \"#utility.yul\":2538:2547   */\n      dup3\n        /* \"#utility.yul\":2534:2552   */\n      add\n        /* \"#utility.yul\":2526:2552   */\n      swap1\n      pop\n        /* \"#utility.yul\":2562:2633   */\n      tag_181\n        /* \"#utility.yul\":2630:2631   */\n      0x00\n        /* \"#utility.yul\":2619:2628   */\n      dup4\n        /* \"#utility.yul\":2615:2632   */\n      add\n        /* \"#utility.yul\":2606:2612   */\n      dup5\n        /* \"#utility.yul\":2562:2633   */\n      tag_109\n      jump\t// in\n    tag_181:\n        /* \"#utility.yul\":2418:2640   */\n      swap3\n      swap2\n      pop\n      pop\n      jump\t// out\n        /* \"#utility.yul\":2646:2745   */\n    tag_110:\n        /* \"#utility.yul\":2698:2704   */\n      0x00\n        /* \"#utility.yul\":2732:2737   */\n      dup2\n        /* \"#utility.yul\":2726:2738   */\n      mload\n        /* \"#utility.yul\":2716:2738   */\n      swap1\n      pop\n        /* \"#utility.yul\":2646:2745   */\n      swap2\n      swap1\n      pop\n      jump\t// out\n        /* \"#utility.yul\":2751:2920   */\n    tag_111:\n        /* \"#utility.yul\":2835:2846   */\n      0x00\n        /* \"#utility.yul\":2869:2875   */\n      dup3\n        /* \"#utility.yul\":2864:2867   */\n      dup3\n        /* \"#utility.yul\":2857:2876   */\n      mstore\n        /* \"#utility.yul\":2909:2913   */\n      0x20\n        /* \"#utility.yul\":2904:2907   */\n      dup3\n        /* \"#utility.yul\":2900:2914   */\n      add\n        /* \"#utility.yul\":2885:2914   */\n      swap1\n      pop\n        /* \"#utility.yul\":2751:2920   */\n      swap3\n      swap2\n      pop\n      pop\n      jump\t// out\n        /* \"#utility.yul\":2926:3233   */\n    tag_112:\n        /* \"#utility.yul\":2994:2995   */\n      0x00\n        /* \"#utility.yul\":3004:3117   */\n    tag_185:\n        /* \"#utility.yul\":3018:3024   */\n      dup4\n        /* \"#utility.yul\":3015:3016   */\n      dup2\n        /* \"#utility.yul\":3012:3025   */\n      lt\n        /* \"#utility.yul\":3004:3117   */\n      iszero\n      tag_187\n      jumpi\n        /* \"#utility.yul\":3103:3104   */\n      dup1\n        /* \"#utility.yul\":3098:3101   */\n      dup3\n        /* \"#utility.yul\":3094:3105   */\n      add\n        /* \"#utility.yul\":3088:3106   */\n      mload\n        /* \"#utility.yul\":3084:3085   */\n      dup2\n        /* \"#utility.yul\":3079:3082   */\n      dup5\n        /* \"#utility.yul\":3075:3086   */\n      add\n        /* \"#utility.yul\":3068:3107   */\n      mstore\n        /* \"#utility.yul\":3040:3042   */\n      0x20\n        /* \"#utility.yul\":3037:3038   */\n      dup2\n        /* \"#utility.yul\":3033:3043   */\n      add\n        /* \"#utility.yul\":3028:3043   */\n      swap1\n      pop\n        /* \"#utility.yul\":3004:3117   */\n      jump(tag_185)\n    tag_187:\n        /* \"#utility.yul\":3135:3141   */\n      dup4\n        /* \"#utility.yul\":3132:3133   */\n      dup2\n        /* \"#utility.yul\":3129:3142   */\n      gt\n        /* \"#utility.yul\":3126:3227   */\n      iszero\n      tag_188\n      jumpi\n        /* \"#utility.yul\":3215:3216   */\n      0x00\n        /* \"#utility.yul\":3206:3212   */\n      dup5\n        /* \"#utility.yul\":3201:3204   */\n      dup5\n        /* \"#utility.yul\":3197:3213   */\n      add\n        /* \"#utility.yul\":3190:3217   */\n      mstore\n        /* \"#utility.yul\":3126:3227   */\n    tag_188:\n        /* \"#utility.yul\":2975:3233   */\n      pop\n        /* \"#utility.yul\":2926:3233   */\n      pop\n      pop\n      pop\n      jump\t// out\n        /* \"#utility.yul\":3239:3341   */\n    tag_113:\n        /* \"#utility.yul\":3280:3286   */\n      0x00\n        /* \"#utility.yul\":3331:3333   */\n      0x1f\n        /* \"#utility.yul\":3327:3334   */\n      not\n        /* \"#utility.yul\":3322:3324   */\n      0x1f\n        /* \"#utility.yul\":3315:3320   */\n      dup4\n        /* \"#utility.yul\":3311:3325   */\n      add\n        /* \"#utility.yul\":3307:3335   */\n      and\n        /* \"#utility.yul\":3297:3335   */\n      swap1\n      pop\n        /* \"#utility.yul\":3239:3341   */\n      swap2\n      swap1\n      pop\n      jump\t// out\n        /* \"#utility.yul\":3347:3711   */\n    tag_114:\n        /* \"#utility.yul\":3435:3438   */\n      0x00\n        /* \"#utility.yul\":3463:3502   */\n      tag_191\n        /* \"#utility.yul\":3496:3501   */\n      dup3\n        /* \"#utility.yul\":3463:3502   */\n      tag_110\n      jump\t// in\n    tag_191:\n        /* \"#utility.yul\":3518:3589   */\n      tag_192\n        /* \"#utility.yul\":3582:3588   */\n      dup2\n        /* \"#utility.yul\":3577:3580   */\n      dup6\n        /* \"#utility.yul\":3518:3589   */\n      tag_111\n      jump\t// in\n    tag_192:\n        /* \"#utility.yul\":3511:3589   */\n      swap4\n      pop\n        /* \"#utility.yul\":3598:3650   */\n      tag_193\n        /* \"#utility.yul\":3643:3649   */\n      dup2\n        /* \"#utility.yul\":3638:3641   */\n      dup6\n        /* \"#utility.yul\":3631:3635   */\n      0x20\n        /* \"#utility.yul\":3624:3629   */\n      dup7\n        /* \"#utility.yul\":3620:3636   */\n      add\n        /* \"#utility.yul\":3598:3650   */\n      tag_112\n      jump\t// in\n    tag_193:\n        /* \"#utility.yul\":3675:3704   */\n      tag_194\n        /* \"#utility.yul\":3697:3703   */\n      dup2\n        /* \"#utility.yul\":3675:3704   */\n      tag_113\n      jump\t// in\n    tag_194:\n        /* \"#utility.yul\":3670:3673   */\n      dup5\n        /* \"#utility.yul\":3666:3705   */\n      add\n        /* \"#utility.yul\":3659:3705   */\n      swap2\n      pop\n        /* \"#utility.yul\":3439:3711   */\n      pop\n        /* \"#utility.yul\":3347:3711   */\n      swap3\n      swap2\n      pop\n      pop\n      jump\t// out\n        /* \"#utility.yul\":3717:3835   */\n    tag_115:\n        /* \"#utility.yul\":3804:3828   */\n      tag_196\n        /* \"#utility.yul\":3822:3827   */\n      dup2\n        /* \"#utility.yul\":3804:3828   */\n      tag_100\n      jump\t// in\n    tag_196:\n        /* \"#utility.yul\":3799:3802   */\n      dup3\n        /* \"#utility.yul\":3792:3829   */\n      mstore\n        /* \"#utility.yul\":3717:3835   */\n      pop\n      pop\n      jump\t// out\n        /* \"#utility.yul\":3841:3945   */\n    tag_116:\n        /* \"#utility.yul\":3886:3893   */\n      0x00\n        /* \"#utility.yul\":3915:3939   */\n      tag_198\n        /* \"#utility.yul\":3933:3938   */\n      dup3\n        /* \"#utility.yul\":3915:3939   */\n      tag_103\n      jump\t// in\n    tag_198:\n        /* \"#utility.yul\":3904:3939   */\n      swap1\n      pop\n        /* \"#utility.yul\":3841:3945   */\n      swap2\n      swap1\n      pop\n      jump\t// out\n        /* \"#utility.yul\":3951:4093   */\n    tag_117:\n        /* \"#utility.yul\":4054:4086   */\n      tag_200\n        /* \"#utility.yul\":4080:4085   */\n      dup2\n        /* \"#utility.yul\":4054:4086   */\n      tag_116\n      jump\t// in\n    tag_200:\n        /* \"#utility.yul\":4049:4052   */\n      dup3\n        /* \"#utility.yul\":4042:4087   */\n      mstore\n        /* \"#utility.yul\":3951:4093   */\n      pop\n      pop\n      jump\t// out\n        /* \"#utility.yul\":4099:4874   */\n    tag_34:\n        /* \"#utility.yul\":4334:4338   */\n      0x00\n        /* \"#utility.yul\":4372:4375   */\n      0xa0\n        /* \"#utility.yul\":4361:4370   */\n      dup3\n        /* \"#utility.yul\":4357:4376   */\n      add\n        /* \"#utility.yul\":4349:4376   */\n      swap1\n      pop\n        /* \"#utility.yul\":4422:4431   */\n      dup2\n        /* \"#utility.yul\":4416:4420   */\n      dup2\n        /* \"#utility.yul\":4412:4432   */\n      sub\n        /* \"#utility.yul\":4408:4409   */\n      0x00\n        /* \"#utility.yul\":4397:4406   */\n      dup4\n        /* \"#utility.yul\":4393:4410   */\n      add\n        /* \"#utility.yul\":4386:4433   */\n      mstore\n        /* \"#utility.yul\":4450:4528   */\n      tag_202\n        /* \"#utility.yul\":4523:4527   */\n      dup2\n        /* \"#utility.yul\":4514:4520   */\n      dup9\n        /* \"#utility.yul\":4450:4528   */\n      tag_114\n      jump\t// in\n    tag_202:\n        /* \"#utility.yul\":4442:4528   */\n      swap1\n      pop\n        /* \"#utility.yul\":4538:4610   */\n      tag_203\n        /* \"#utility.yul\":4606:4608   */\n      0x20\n        /* \"#utility.yul\":4595:4604   */\n      dup4\n        /* \"#utility.yul\":4591:4609   */\n      add\n        /* \"#utility.yul\":4582:4588   */\n      dup8\n        /* \"#utility.yul\":4538:4610   */\n      tag_115\n      jump\t// in\n    tag_203:\n        /* \"#utility.yul\":4620:4708   */\n      tag_204\n        /* \"#utility.yul\":4704:4706   */\n      0x40\n        /* \"#utility.yul\":4693:4702   */\n      dup4\n        /* \"#utility.yul\":4689:4707   */\n      add\n        /* \"#utility.yul\":4680:4686   */\n      dup7\n        /* \"#utility.yul\":4620:4708   */\n      tag_117\n      jump\t// in\n    tag_204:\n        /* \"#utility.yul\":4718:4784   */\n      tag_205\n        /* \"#utility.yul\":4780:4782   */\n      0x60\n        /* \"#utility.yul\":4769:4778   */\n      dup4\n        /* \"#utility.yul\":4765:4783   */\n      add\n        /* \"#utility.yul\":4756:4762   */\n      dup6\n        /* \"#utility.yul\":4718:4784   */\n      tag_108\n      jump\t// in\n    tag_205:\n        /* \"#utility.yul\":4794:4867   */\n      tag_206\n        /* \"#utility.yul\":4862:4865   */\n      0x80\n        /* \"#utility.yul\":4851:4860   */\n      dup4\n        /* \"#utility.yul\":4847:4866   */\n      add\n        /* \"#utility.yul\":4838:4844   */\n      dup5\n        /* \"#utility.yul\":4794:4867   */\n      tag_115\n      jump\t// in\n    tag_206:\n        /* \"#utility.yul\":4099:4874   */\n      swap7\n      swap6\n      pop\n      pop\n      pop\n      pop\n      pop\n      pop\n      jump\t// out\n        /* \"#utility.yul\":4880:5102   */\n    tag_39:\n        /* \"#utility.yul\":4973:4977   */\n      0x00\n        /* \"#utility.yul\":5011:5013   */\n      0x20\n        /* \"#utility.yul\":5000:5009   */\n      dup3\n        /* \"#utility.yul\":4996:5014   */\n      add\n        /* \"#utility.yul\":4988:5014   */\n      swap1\n      pop\n        /* \"#utility.yul\":5024:5095   */\n      tag_208\n        /* \"#utility.yul\":5092:5093   */\n      0x00\n        /* \"#utility.yul\":5081:5090   */\n      dup4\n        /* \"#utility.yul\":5077:5094   */\n      add\n        /* \"#utility.yul\":5068:5074   */\n      dup5\n        /* \"#utility.yul\":5024:5095   */\n      tag_115\n      jump\t// in\n    tag_208:\n        /* \"#utility.yul\":4880:5102   */\n      swap3\n      swap2\n      pop\n      pop\n      jump\t// out\n        /* \"#utility.yul\":5108:5225   */\n    tag_118:\n        /* \"#utility.yul\":5217:5218   */\n      0x00\n        /* \"#utility.yul\":5214:5215   */\n      dup1\n        /* \"#utility.yul\":5207:5219   */\n      revert\n        /* \"#utility.yul\":5231:5348   */\n    tag_119:\n        /* \"#utility.yul\":5340:5341   */\n      0x00\n        /* \"#utility.yul\":5337:5338   */\n      dup1\n        /* \"#utility.yul\":5330:5342   */\n      revert\n        /* \"#utility.yul\":5354:5534   */\n    tag_120:\n        /* \"#utility.yul\":5402:5479   */\n      0x4e487b7100000000000000000000000000000000000000000000000000000000\n        /* \"#utility.yul\":5399:5400   */\n      0x00\n        /* \"#utility.yul\":5392:5480   */\n      mstore\n        /* \"#utility.yul\":5499:5503   */\n      0x41\n        /* \"#utility.yul\":5496:5497   */\n      0x04\n        /* \"#utility.yul\":5489:5504   */\n      mstore\n        /* \"#utility.yul\":5523:5527   */\n      0x24\n        /* \"#utility.yul\":5520:5521   */\n      0x00\n        /* \"#utility.yul\":5513:5528   */\n      revert\n        /* \"#utility.yul\":5540:5821   */\n    tag_121:\n        /* \"#utility.yul\":5623:5650   */\n      tag_213\n        /* \"#utility.yul\":5645:5649   */\n      dup3\n        /* \"#utility.yul\":5623:5650   */\n      tag_113\n      jump\t// in\n    tag_213:\n        /* \"#utility.yul\":5615:5621   */\n      dup2\n        /* \"#utility.yul\":5611:5651   */\n      add\n        /* \"#utility.yul\":5753:5759   */\n      dup2\n        /* \"#utility.yul\":5741:5751   */\n      dup2\n        /* \"#utility.yul\":5738:5760   */\n      lt\n        /* \"#utility.yul\":5717:5735   */\n      0xffffffffffffffff\n        /* \"#utility.yul\":5705:5715   */\n      dup3\n        /* \"#utility.yul\":5702:5736   */\n      gt\n        /* \"#utility.yul\":5699:5761   */\n      or\n        /* \"#utility.yul\":5696:5784   */\n      iszero\n      tag_214\n      jumpi\n        /* \"#utility.yul\":5764:5782   */\n      tag_215\n      tag_120\n      jump\t// in\n    tag_215:\n        /* \"#utility.yul\":5696:5784   */\n    tag_214:\n        /* \"#utility.yul\":5804:5814   */\n      dup1\n        /* \"#utility.yul\":5800:5802   */\n      0x40\n        /* \"#utility.yul\":5793:5815   */\n      mstore\n        /* \"#utility.yul\":5583:5821   */\n      pop\n        /* \"#utility.yul\":5540:5821   */\n      pop\n      pop\n      jump\t// out\n        /* \"#utility.yul\":5827:5956   */\n    tag_122:\n        /* \"#utility.yul\":5861:5867   */\n      0x00\n        /* \"#utility.yul\":5888:5908   */\n      tag_217\n      tag_97\n      jump\t// in\n    tag_217:\n        /* \"#utility.yul\":5878:5908   */\n      swap1\n      pop\n        /* \"#utility.yul\":5917:5950   */\n      tag_218\n        /* \"#utility.yul\":5945:5949   */\n      dup3\n        /* \"#utility.yul\":5937:5943   */\n      dup3\n        /* \"#utility.yul\":5917:5950   */\n      tag_121\n      jump\t// in\n    tag_218:\n        /* \"#utility.yul\":5827:5956   */\n      swap2\n      swap1\n      pop\n      jump\t// out\n        /* \"#utility.yul\":5962:6270   */\n    tag_123:\n        /* \"#utility.yul\":6024:6028   */\n      0x00\n        /* \"#utility.yul\":6114:6132   */\n      0xffffffffffffffff\n        /* \"#utility.yul\":6106:6112   */\n      dup3\n        /* \"#utility.yul\":6103:6133   */\n      gt\n        /* \"#utility.yul\":6100:6156   */\n      iszero\n      tag_220\n      jumpi\n        /* \"#utility.yul\":6136:6154   */\n      tag_221\n      tag_120\n      jump\t// in\n    tag_221:\n        /* \"#utility.yul\":6100:6156   */\n    tag_220:\n        /* \"#utility.yul\":6174:6203   */\n      tag_222\n        /* \"#utility.yul\":6196:6202   */\n      dup3\n        /* \"#utility.yul\":6174:6203   */\n      tag_113\n      jump\t// in\n    tag_222:\n        /* \"#utility.yul\":6166:6203   */\n      swap1\n      pop\n        /* \"#utility.yul\":6258:6262   */\n      0x20\n        /* \"#utility.yul\":6252:6256   */\n      dup2\n        /* \"#utility.yul\":6248:6263   */\n      add\n        /* \"#utility.yul\":6240:6263   */\n      swap1\n      pop\n        /* \"#utility.yul\":5962:6270   */\n      swap2\n      swap1\n      pop\n      jump\t// out\n        /* \"#utility.yul\":6276:6430   */\n    tag_124:\n        /* \"#utility.yul\":6360:6366   */\n      dup3\n        /* \"#utility.yul\":6355:6358   */\n      dup2\n        /* \"#utility.yul\":6350:6353   */\n      dup4\n        /* \"#utility.yul\":6337:6367   */\n      calldatacopy\n        /* \"#utility.yul\":6422:6423   */\n      0x00\n        /* \"#utility.yul\":6413:6419   */\n      dup4\n        /* \"#utility.yul\":6408:6411   */\n      dup4\n        /* \"#utility.yul\":6404:6420   */\n      add\n        /* \"#utility.yul\":6397:6424   */\n      mstore\n        /* \"#utility.yul\":6276:6430   */\n      pop\n      pop\n      pop\n      jump\t// out\n        /* \"#utility.yul\":6436:6848   */\n    tag_125:\n        /* \"#utility.yul\":6514:6519   */\n      0x00\n        /* \"#utility.yul\":6539:6605   */\n      tag_225\n        /* \"#utility.yul\":6555:6604   */\n      tag_226\n        /* \"#utility.yul\":6597:6603   */\n      dup5\n        /* \"#utility.yul\":6555:6604   */\n      tag_123\n      jump\t// in\n    tag_226:\n        /* \"#utility.yul\":6539:6605   */\n      tag_122\n      jump\t// in\n    tag_225:\n        /* \"#utility.yul\":6530:6605   */\n      swap1\n      pop\n        /* \"#utility.yul\":6628:6634   */\n      dup3\n        /* \"#utility.yul\":6621:6626   */\n      dup2\n        /* \"#utility.yul\":6614:6635   */\n      mstore\n        /* \"#utility.yul\":6666:6670   */\n      0x20\n        /* \"#utility.yul\":6659:6664   */\n      dup2\n        /* \"#utility.yul\":6655:6671   */\n      add\n        /* \"#utility.yul\":6704:6707   */\n      dup5\n        /* \"#utility.yul\":6695:6701   */\n      dup5\n        /* \"#utility.yul\":6690:6693   */\n      dup5\n        /* \"#utility.yul\":6686:6702   */\n      add\n        /* \"#utility.yul\":6683:6708   */\n      gt\n        /* \"#utility.yul\":6680:6792   */\n      iszero\n      tag_227\n      jumpi\n        /* \"#utility.yul\":6711:6790   */\n      tag_228\n      tag_119\n      jump\t// in\n    tag_228:\n        /* \"#utility.yul\":6680:6792   */\n    tag_227:\n        /* \"#utility.yul\":6801:6842   */\n      tag_229\n        /* \"#utility.yul\":6835:6841   */\n      dup5\n        /* \"#utility.yul\":6830:6833   */\n      dup3\n        /* \"#utility.yul\":6825:6828   */\n      dup6\n        /* \"#utility.yul\":6801:6842   */\n      tag_124\n      jump\t// in\n    tag_229:\n        /* \"#utility.yul\":6520:6848   */\n      pop\n        /* \"#utility.yul\":6436:6848   */\n      swap4\n      swap3\n      pop\n      pop\n      pop\n      jump\t// out\n        /* \"#utility.yul\":6868:7208   */\n    tag_126:\n        /* \"#utility.yul\":6924:6929   */\n      0x00\n        /* \"#utility.yul\":6973:6976   */\n      dup3\n        /* \"#utility.yul\":6966:6970   */\n      0x1f\n        /* \"#utility.yul\":6958:6964   */\n      dup4\n        /* \"#utility.yul\":6954:6971   */\n      add\n        /* \"#utility.yul\":6950:6977   */\n      slt\n        /* \"#utility.yul\":6940:7062   */\n      tag_231\n      jumpi\n        /* \"#utility.yul\":6981:7060   */\n      tag_232\n      tag_118\n      jump\t// in\n    tag_232:\n        /* \"#utility.yul\":6940:7062   */\n    tag_231:\n        /* \"#utility.yul\":7098:7104   */\n      dup2\n        /* \"#utility.yul\":7085:7105   */\n      calldataload\n        /* \"#utility.yul\":7123:7202   */\n      tag_233\n        /* \"#utility.yul\":7198:7201   */\n      dup5\n        /* \"#utility.yul\":7190:7196   */\n      dup3\n        /* \"#utility.yul\":7183:7187   */\n      0x20\n        /* \"#utility.yul\":7175:7181   */\n      dup7\n        /* \"#utility.yul\":7171:7188   */\n      add\n        /* \"#utility.yul\":7123:7202   */\n      tag_125\n      jump\t// in\n    tag_233:\n        /* \"#utility.yul\":7114:7202   */\n      swap2\n      pop\n        /* \"#utility.yul\":6930:7208   */\n      pop\n        /* \"#utility.yul\":6868:7208   */\n      swap3\n      swap2\n      pop\n      pop\n      jump\t// out\n        /* \"#utility.yul\":7214:7352   */\n    tag_127:\n        /* \"#utility.yul\":7295:7327   */\n      tag_235\n        /* \"#utility.yul\":7321:7326   */\n      dup2\n        /* \"#utility.yul\":7295:7327   */\n      tag_116\n      jump\t// in\n    tag_235:\n        /* \"#utility.yul\":7288:7293   */\n      dup2\n        /* \"#utility.yul\":7285:7328   */\n      eq\n        /* \"#utility.yul\":7275:7346   */\n      tag_236\n      jumpi\n        /* \"#utility.yul\":7342:7343   */\n      0x00\n        /* \"#utility.yul\":7339:7340   */\n      dup1\n        /* \"#utility.yul\":7332:7344   */\n      revert\n        /* \"#utility.yul\":7275:7346   */\n    tag_236:\n        /* \"#utility.yul\":7214:7352   */\n      pop\n      jump\t// out\n        /* \"#utility.yul\":7358:7513   */\n    tag_128:\n        /* \"#utility.yul\":7412:7417   */\n      0x00\n        /* \"#utility.yul\":7450:7456   */\n      dup2\n        /* \"#utility.yul\":7437:7457   */\n      calldataload\n        /* \"#utility.yul\":7428:7457   */\n      swap1\n      pop\n        /* \"#utility.yul\":7466:7507   */\n      tag_238\n        /* \"#utility.yul\":7501:7506   */\n      dup2\n        /* \"#utility.yul\":7466:7507   */\n      tag_127\n      jump\t// in\n    tag_238:\n        /* \"#utility.yul\":7358:7513   */\n      swap3\n      swap2\n      pop\n      pop\n      jump\t// out\n        /* \"#utility.yul\":7519:8334   */\n    tag_43:\n        /* \"#utility.yul\":7614:7620   */\n      0x00\n        /* \"#utility.yul\":7622:7628   */\n      dup1\n        /* \"#utility.yul\":7630:7636   */\n      0x00\n        /* \"#utility.yul\":7679:7681   */\n      0x60\n        /* \"#utility.yul\":7667:7676   */\n      dup5\n        /* \"#utility.yul\":7658:7665   */\n      dup7\n        /* \"#utility.yul\":7654:7677   */\n      sub\n        /* \"#utility.yul\":7650:7682   */\n      slt\n        /* \"#utility.yul\":7647:7766   */\n      iszero\n      tag_240\n      jumpi\n        /* \"#utility.yul\":7685:7764   */\n      tag_241\n      tag_98\n      jump\t// in\n    tag_241:\n        /* \"#utility.yul\":7647:7766   */\n    tag_240:\n        /* \"#utility.yul\":7833:7834   */\n      0x00\n        /* \"#utility.yul\":7822:7831   */\n      dup5\n        /* \"#utility.yul\":7818:7835   */\n      add\n        /* \"#utility.yul\":7805:7836   */\n      calldataload\n        /* \"#utility.yul\":7863:7881   */\n      0xffffffffffffffff\n        /* \"#utility.yul\":7855:7861   */\n      dup2\n        /* \"#utility.yul\":7852:7882   */\n      gt\n        /* \"#utility.yul\":7849:7966   */\n      iszero\n      tag_242\n      jumpi\n        /* \"#utility.yul\":7885:7964   */\n      tag_243\n      tag_99\n      jump\t// in\n    tag_243:\n        /* \"#utility.yul\":7849:7966   */\n    tag_242:\n        /* \"#utility.yul\":7990:8053   */\n      tag_244\n        /* \"#utility.yul\":8045:8052   */\n      dup7\n        /* \"#utility.yul\":8036:8042   */\n      dup3\n        /* \"#utility.yul\":8025:8034   */\n      dup8\n        /* \"#utility.yul\":8021:8043   */\n      add\n        /* \"#utility.yul\":7990:8053   */\n      tag_126\n      jump\t// in\n    tag_244:\n        /* \"#utility.yul\":7980:8053   */\n      swap4\n      pop\n        /* \"#utility.yul\":7776:8063   */\n      pop\n        /* \"#utility.yul\":8102:8104   */\n      0x20\n        /* \"#utility.yul\":8128:8181   */\n      tag_245\n        /* \"#utility.yul\":8173:8180   */\n      dup7\n        /* \"#utility.yul\":8164:8170   */\n      dup3\n        /* \"#utility.yul\":8153:8162   */\n      dup8\n        /* \"#utility.yul\":8149:8171   */\n      add\n        /* \"#utility.yul\":8128:8181   */\n      tag_102\n      jump\t// in\n    tag_245:\n        /* \"#utility.yul\":8118:8181   */\n      swap3\n      pop\n        /* \"#utility.yul\":8073:8191   */\n      pop\n        /* \"#utility.yul\":8230:8232   */\n      0x40\n        /* \"#utility.yul\":8256:8317   */\n      tag_246\n        /* \"#utility.yul\":8309:8316   */\n      dup7\n        /* \"#utility.yul\":8300:8306   */\n      dup3\n        /* \"#utility.yul\":8289:8298   */\n      dup8\n        /* \"#utility.yul\":8285:8307   */\n      add\n        /* \"#utility.yul\":8256:8317   */\n      tag_128\n      jump\t// in\n    tag_246:\n        /* \"#utility.yul\":8246:8317   */\n      swap2\n      pop\n        /* \"#utility.yul\":8201:8327   */\n      pop\n        /* \"#utility.yul\":7519:8334   */\n      swap3\n      pop\n      swap3\n      pop\n      swap3\n      jump\t// out\n        /* \"#utility.yul\":8340:8520   */\n    tag_60:\n        /* \"#utility.yul\":8388:8465   */\n      0x4e487b7100000000000000000000000000000000000000000000000000000000\n        /* \"#utility.yul\":8385:8386   */\n      0x00\n        /* \"#utility.yul\":8378:8466   */\n      mstore\n        /* \"#utility.yul\":8485:8489   */\n      0x32\n        /* \"#utility.yul\":8482:8483   */\n      0x04\n        /* \"#utility.yul\":8475:8490   */\n      mstore\n        /* \"#utility.yul\":8509:8513   */\n      0x24\n        /* \"#utility.yul\":8506:8507   */\n      0x00\n        /* \"#utility.yul\":8499:8514   */\n      revert\n        /* \"#utility.yul\":8526:8706   */\n    tag_129:\n        /* \"#utility.yul\":8574:8651   */\n      0x4e487b7100000000000000000000000000000000000000000000000000000000\n        /* \"#utility.yul\":8571:8572   */\n      0x00\n        /* \"#utility.yul\":8564:8652   */\n      mstore\n        /* \"#utility.yul\":8671:8675   */\n      0x12\n        /* \"#utility.yul\":8668:8669   */\n      0x04\n        /* \"#utility.yul\":8661:8676   */\n      mstore\n        /* \"#utility.yul\":8695:8699   */\n      0x24\n        /* \"#utility.yul\":8692:8693   */\n      0x00\n        /* \"#utility.yul\":8685:8700   */\n      revert\n        /* \"#utility.yul\":8712:8892   */\n    tag_130:\n        /* \"#utility.yul\":8760:8837   */\n      0x4e487b7100000000000000000000000000000000000000000000000000000000\n        /* \"#utility.yul\":8757:8758   */\n      0x00\n        /* \"#utility.yul\":8750:8838   */\n      mstore\n        /* \"#utility.yul\":8857:8861   */\n      0x11\n        /* \"#utility.yul\":8854:8855   */\n      0x04\n        /* \"#utility.yul\":8847:8862   */\n      mstore\n        /* \"#utility.yul\":8881:8885   */\n      0x24\n        /* \"#utility.yul\":8878:8879   */\n      0x00\n        /* \"#utility.yul\":8871:8886   */\n      revert\n        /* \"#utility.yul\":8898:9083   */\n    tag_64:\n        /* \"#utility.yul\":8938:8939   */\n      0x00\n        /* \"#utility.yul\":8955:8975   */\n      tag_251\n        /* \"#utility.yul\":8973:8974   */\n      dup3\n        /* \"#utility.yul\":8955:8975   */\n      tag_100\n      jump\t// in\n    tag_251:\n        /* \"#utility.yul\":8950:8975   */\n      swap2\n      pop\n        /* \"#utility.yul\":8989:9009   */\n      tag_252\n        /* \"#utility.yul\":9007:9008   */\n      dup4\n        /* \"#utility.yul\":8989:9009   */\n      tag_100\n      jump\t// in\n    tag_252:\n        /* \"#utility.yul\":8984:9009   */\n      swap3\n      pop\n        /* \"#utility.yul\":9028:9029   */\n      dup3\n        /* \"#utility.yul\":9018:9053   */\n      tag_253\n      jumpi\n        /* \"#utility.yul\":9033:9051   */\n      tag_254\n      tag_129\n      jump\t// in\n    tag_254:\n        /* \"#utility.yul\":9018:9053   */\n    tag_253:\n        /* \"#utility.yul\":9075:9076   */\n      dup3\n        /* \"#utility.yul\":9072:9073   */\n      dup3\n        /* \"#utility.yul\":9068:9077   */\n      div\n        /* \"#utility.yul\":9063:9077   */\n      swap1\n      pop\n        /* \"#utility.yul\":8898:9083   */\n      swap3\n      swap2\n      pop\n      pop\n      jump\t// out\n        /* \"#utility.yul\":9089:9269   */\n    tag_131:\n        /* \"#utility.yul\":9137:9214   */\n      0x4e487b7100000000000000000000000000000000000000000000000000000000\n        /* \"#utility.yul\":9134:9135   */\n      0x00\n        /* \"#utility.yul\":9127:9215   */\n      mstore\n        /* \"#utility.yul\":9234:9238   */\n      0x22\n        /* \"#utility.yul\":9231:9232   */\n      0x04\n        /* \"#utility.yul\":9224:9239   */\n      mstore\n        /* \"#utility.yul\":9258:9262   */\n      0x24\n        /* \"#utility.yul\":9255:9256   */\n      0x00\n        /* \"#utility.yul\":9248:9263   */\n      revert\n        /* \"#utility.yul\":9275:9595   */\n    tag_74:\n        /* \"#utility.yul\":9319:9325   */\n      0x00\n        /* \"#utility.yul\":9356:9357   */\n      0x02\n        /* \"#utility.yul\":9350:9354   */\n      dup3\n        /* \"#utility.yul\":9346:9358   */\n      div\n        /* \"#utility.yul\":9336:9358   */\n      swap1\n      pop\n        /* \"#utility.yul\":9403:9404   */\n      0x01\n        /* \"#utility.yul\":9397:9401   */\n      dup3\n        /* \"#utility.yul\":9393:9405   */\n      and\n        /* \"#utility.yul\":9424:9442   */\n      dup1\n        /* \"#utility.yul\":9414:9495   */\n      tag_257\n      jumpi\n        /* \"#utility.yul\":9480:9484   */\n      0x7f\n        /* \"#utility.yul\":9472:9478   */\n      dup3\n        /* \"#utility.yul\":9468:9485   */\n      and\n        /* \"#utility.yul\":9458:9485   */\n      swap2\n      pop\n        /* \"#utility.yul\":9414:9495   */\n    tag_257:\n        /* \"#utility.yul\":9542:9544   */\n      0x20\n        /* \"#utility.yul\":9534:9540   */\n      dup3\n        /* \"#utility.yul\":9531:9545   */\n      lt\n        /* \"#utility.yul\":9511:9529   */\n      dup2\n        /* \"#utility.yul\":9508:9546   */\n      sub\n        /* \"#utility.yul\":9505:9589   */\n      tag_258\n      jumpi\n        /* \"#utility.yul\":9561:9579   */\n      tag_259\n      tag_131\n      jump\t// in\n    tag_259:\n        /* \"#utility.yul\":9505:9589   */\n    tag_258:\n        /* \"#utility.yul\":9326:9595   */\n      pop\n        /* \"#utility.yul\":9275:9595   */\n      swap2\n      swap1\n      pop\n      jump\t// out\n        /* \"#utility.yul\":9601:9742   */\n    tag_132:\n        /* \"#utility.yul\":9650:9654   */\n      0x00\n        /* \"#utility.yul\":9673:9676   */\n      dup2\n        /* \"#utility.yul\":9665:9676   */\n      swap1\n      pop\n        /* \"#utility.yul\":9696:9699   */\n      dup2\n        /* \"#utility.yul\":9693:9694   */\n      0x00\n        /* \"#utility.yul\":9686:9700   */\n      mstore\n        /* \"#utility.yul\":9730:9734   */\n      0x20\n        /* \"#utility.yul\":9727:9728   */\n      0x00\n        /* \"#utility.yul\":9717:9735   */\n      keccak256\n        /* \"#utility.yul\":9709:9735   */\n      swap1\n      pop\n        /* \"#utility.yul\":9601:9742   */\n      swap2\n      swap1\n      pop\n      jump\t// out\n        /* \"#utility.yul\":9748:9841   */\n    tag_133:\n        /* \"#utility.yul\":9785:9791   */\n      0x00\n        /* \"#utility.yul\":9832:9834   */\n      0x20\n        /* \"#utility.yul\":9827:9829   */\n      0x1f\n        /* \"#utility.yul\":9820:9825   */\n      dup4\n        /* \"#utility.yul\":9816:9830   */\n      add\n        /* \"#utility.yul\":9812:9835   */\n      div\n        /* \"#utility.yul\":9802:9835   */\n      swap1\n      pop\n        /* \"#utility.yul\":9748:9841   */\n      swap2\n      swap1\n      pop\n      jump\t// out\n        /* \"#utility.yul\":9847:9954   */\n    tag_134:\n        /* \"#utility.yul\":9891:9899   */\n      0x00\n        /* \"#utility.yul\":9941:9946   */\n      dup3\n        /* \"#utility.yul\":9935:9939   */\n      dup3\n        /* \"#utility.yul\":9931:9947   */\n      shl\n        /* \"#utility.yul\":9910:9947   */\n      swap1\n      pop\n        /* \"#utility.yul\":9847:9954   */\n      swap3\n      swap2\n      pop\n      pop\n      jump\t// out\n        /* \"#utility.yul\":9960:10353   */\n    tag_135:\n        /* \"#utility.yul\":10029:10035   */\n      0x00\n        /* \"#utility.yul\":10079:10080   */\n      0x08\n        /* \"#utility.yul\":10067:10077   */\n      dup4\n        /* \"#utility.yul\":10063:10081   */\n      mul\n        /* \"#utility.yul\":10102:10199   */\n      tag_264\n        /* \"#utility.yul\":10132:10198   */\n      0xffffffffffffffffffffffffffffffffffffffffffffffffffffffffffffffff\n        /* \"#utility.yul\":10121:10130   */\n      dup3\n        /* \"#utility.yul\":10102:10199   */\n      tag_134\n      jump\t// in\n    tag_264:\n        /* \"#utility.yul\":10220:10259   */\n      tag_265\n        /* \"#utility.yul\":10250:10258   */\n      dup7\n        /* \"#utility.yul\":10239:10248   */\n      dup4\n        /* \"#utility.yul\":10220:10259   */\n      tag_134\n      jump\t// in\n    tag_265:\n        /* \"#utility.yul\":10208:10259   */\n      swap6\n      pop\n        /* \"#utility.yul\":10292:10296   */\n      dup1\n        /* \"#utility.yul\":10288:10297   */\n      not\n        /* \"#utility.yul\":10281:10286   */\n      dup5\n        /* \"#utility.yul\":10277:10298   */\n      and\n        /* \"#utility.yul\":10268:10298   */\n      swap4\n      pop\n        /* \"#utility.yul\":10341:10345   */\n      dup1\n        /* \"#utility.yul\":10331:10339   */\n      dup7\n        /* \"#utility.yul\":10327:10346   */\n      and\n        /* \"#utility.yul\":10320:10325   */\n      dup5\n        /* \"#utility.yul\":10317:10347   */\n      or\n        /* \"#utility.yul\":10307:10347   */\n      swap3\n      pop\n        /* \"#utility.yul\":10036:10353   */\n      pop\n      pop\n        /* \"#utility.yul\":9960:10353   */\n      swap4\n      swap3\n      pop\n      pop\n      pop\n      jump\t// out\n        /* \"#utility.yul\":10359:10419   */\n    tag_136:\n        /* \"#utility.yul\":10387:10390   */\n      0x00\n        /* \"#utility.yul\":10408:10413   */\n      dup2\n        /* \"#utility.yul\":10401:10413   */\n      swap1\n      pop\n        /* \"#utility.yul\":10359:10419   */\n      swap2\n      swap1\n      pop\n      jump\t// out\n        /* \"#utility.yul\":10425:10567   */\n    tag_137:\n        /* \"#utility.yul\":10475:10484   */\n      0x00\n        /* \"#utility.yul\":10508:10561   */\n      tag_268\n        /* \"#utility.yul\":10526:10560   */\n      tag_269\n        /* \"#utility.yul\":10535:10559   */\n      tag_270\n        /* \"#utility.yul\":10553:10558   */\n      dup5\n        /* \"#utility.yul\":10535:10559   */\n      tag_100\n      jump\t// in\n    tag_270:\n        /* \"#utility.yul\":10526:10560   */\n      tag_136\n      jump\t// in\n    tag_269:\n        /* \"#utility.yul\":10508:10561   */\n      tag_100\n      jump\t// in\n    tag_268:\n        /* \"#utility.yul\":10495:10561   */\n      swap1\n      pop\n        /* \"#utility.yul\":10425:10567   */\n      swap2\n      swap1\n      pop\n      jump\t// out\n        /* \"#utility.yul\":10573:10648   */\n    tag_138:\n        /* \"#utility.yul\":10616:10619   */\n      0x00\n        /* \"#utility.yul\":10637:10642   */\n      dup2\n        /* \"#utility.yul\":10630:10642   */\n      swap1\n      pop\n        /* \"#utility.yul\":10573:10648   */\n      swap2\n      swap1\n      pop\n      jump\t// out\n        /* \"#utility.yul\":10654:10923   */\n    tag_139:\n        /* \"#utility.yul\":10764:10803   */\n      tag_273\n        /* \"#utility.yul\":10795:10802   */\n      dup4\n        /* \"#utility.yul\":10764:10803   */\n      tag_137\n      jump\t// in\n    tag_273:\n        /* \"#utility.yul\":10825:10916   */\n      tag_274\n        /* \"#utility.yul\":10874:10915   */\n      tag_275\n        /* \"#utility.yul\":10898:10914   */\n      dup3\n        /* \"#utility.yul\":10874:10915   */\n      tag_138\n      jump\t// in\n    tag_275:\n        /* \"#utility.yul\":10866:10872   */\n      dup5\n        /* \"#utility.yul\":10859:10863   */\n      dup5\n        /* \"#utility.yul\":10853:10864   */\n      sload\n        /* \"#utility.yul\":10825:10916   */\n      tag_135\n      jump\t// in\n    tag_274:\n        /* \"#utility.yul\":10819:10823   */\n      dup3\n        /* \"#utility.yul\":10812:10917   */\n      sstore\n        /* \"#utility.yul\":10730:10923   */\n      pop\n        /* \"#utility.yul\":10654:10923   */\n      pop\n      pop\n      pop\n      jump\t// out\n        /* \"#utility.yul\":10929:11002   */\n    tag_140:\n        /* \"#utility.yul\":10974:10977   */\n      0x00\n        /* \"#utility.yul\":10929:11002   */\n      swap1\n      jump\t// out\n        /* \"#utility.yul\":11008:11197   */\n    tag_141:\n        /* \"#utility.yul\":11085:11117   */\n      tag_278\n      tag_140\n      jump\t// in\n    tag_278:\n        /* \"#utility.yul\":11126:11191   */\n      tag_279\n        /* \"#utility.yul\":11184:11190   */\n      dup2\n        /* \"#utility.yul\":11176:11182   */\n      dup5\n        /* \"#utility.yul\":11170:11174   */\n      dup5\n        /* \"#utility.yul\":11126:11191   */\n      tag_139\n      jump\t// in\n    tag_279:\n        /* \"#utility.yul\":11061:11197   */\n      pop\n        /* \"#utility.yul\":11008:11197   */\n      pop\n      pop\n      jump\t// out\n        /* \"#utility.yul\":11203:11389   */\n    tag_142:\n        /* \"#utility.yul\":11263:11383   */\n    tag_281:\n        /* \"#utility.yul\":11280:11283   */\n      dup2\n        /* \"#utility.yul\":11273:11278   */\n      dup2\n        /* \"#utility.yul\":11270:11284   */\n      lt\n        /* \"#utility.yul\":11263:11383   */\n      iszero\n      tag_283\n      jumpi\n        /* \"#utility.yul\":11334:11373   */\n      tag_284\n        /* \"#utility.yul\":11371:11372   */\n      0x00\n        /* \"#utility.yul\":11364:11369   */\n      dup3\n        /* \"#utility.yul\":11334:11373   */\n      tag_141\n      jump\t// in\n    tag_284:\n        /* \"#utility.yul\":11307:11308   */\n      0x01\n        /* \"#utility.yul\":11300:11305   */\n      dup2\n        /* \"#utility.yul\":11296:11309   */\n      add\n        /* \"#utility.yul\":11287:11309   */\n      swap1\n      pop\n        /* \"#utility.yul\":11263:11383   */\n      jump(tag_281)\n    tag_283:\n        /* \"#utility.yul\":11203:11389   */\n      pop\n      pop\n      jump\t// out\n        /* \"#utility.yul\":11395:11938   */\n    tag_143:\n        /* \"#utility.yul\":11496:11498   */\n      0x1f\n        /* \"#utility.yul\":11491:11494   */\n      dup3\n        /* \"#utility.yul\":11488:11499   */\n      gt\n        /* \"#utility.yul\":11485:11931   */\n      iszero\n      tag_286\n      jumpi\n        /* \"#utility.yul\":11530:11568   */\n      tag_287\n        /* \"#utility.yul\":11562:11567   */\n      dup2\n        /* \"#utility.yul\":11530:11568   */\n      tag_132\n      jump\t// in\n    tag_287:\n        /* \"#utility.yul\":11614:11643   */\n      tag_288\n        /* \"#utility.yul\":11632:11642   */\n      dup5\n        /* \"#utility.yul\":11614:11643   */\n      tag_133\n      jump\t// in\n    tag_288:\n        /* \"#utility.yul\":11604:11612   */\n      dup2\n        /* \"#utility.yul\":11600:11644   */\n      add\n        /* \"#utility.yul\":11797:11799   */\n      0x20\n        /* \"#utility.yul\":11785:11795   */\n      dup6\n        /* \"#utility.yul\":11782:11800   */\n      lt\n        /* \"#utility.yul\":11779:11828   */\n      iszero\n      tag_289\n      jumpi\n        /* \"#utility.yul\":11818:11826   */\n      dup2\n        /* \"#utility.yul\":11803:11826   */\n      swap1\n      pop\n        /* \"#utility.yul\":11779:11828   */\n    tag_289:\n        /* \"#utility.yul\":11841:11921   */\n      tag_290\n        /* \"#utility.yul\":11897:11919   */\n      tag_291\n        /* \"#utility.yul\":11915:11918   */\n      dup6\n        /* \"#utility.yul\":11897:11919   */\n      tag_133\n      jump\t// in\n    tag_291:\n        /* \"#utility.yul\":11887:11895   */\n      dup4\n        /* \"#utility.yul\":11883:11920   */\n      add\n        /* \"#utility.yul\":11870:11881   */\n      dup3\n        /* \"#utility.yul\":11841:11921   */\n      tag_142\n      jump\t// in\n    tag_290:\n        /* \"#utility.yul\":11500:11931   */\n      pop\n      pop\n        /* \"#utility.yul\":11485:11931   */\n    tag_286:\n        /* \"#utility.yul\":11395:11938   */\n      pop\n      pop\n      pop\n      jump\t// out\n        /* \"#utility.yul\":11944:12061   */\n    tag_144:\n        /* \"#utility.yul\":11998:12006   */\n      0x00\n        /* \"#utility.yul\":12048:12053   */\n      dup3\n        /* \"#utility.yul\":12042:12046   */\n      dup3\n        /* \"#utility.yul\":12038:12054   */\n      shr\n        /* \"#utility.yul\":12017:12054   */\n      swap1\n      pop\n        /* \"#utility.yul\":11944:12061   */\n      swap3\n      swap2\n      pop\n      pop\n      jump\t// out\n        /* \"#utility.yul\":12067:12236   */\n    tag_145:\n        /* \"#utility.yul\":12111:12117   */\n      0x00\n        /* \"#utility.yul\":12144:12195   */\n      tag_294\n        /* \"#utility.yul\":12192:12193   */\n      0x00\n        /* \"#utility.yul\":12188:12194   */\n      not\n        /* \"#utility.yul\":12180:12185   */\n      dup5\n        /* \"#utility.yul\":12177:12178   */\n      0x08\n        /* \"#utility.yul\":12173:12186   */\n      mul\n        /* \"#utility.yul\":12144:12195   */\n      tag_144\n      jump\t// in\n    tag_294:\n        /* \"#utility.yul\":12140:12196   */\n      not\n        /* \"#utility.yul\":12225:12229   */\n      dup1\n        /* \"#utility.yul\":12219:12223   */\n      dup4\n        /* \"#utility.yul\":12215:12230   */\n      and\n        /* \"#utility.yul\":12205:12230   */\n      swap2\n      pop\n        /* \"#utility.yul\":12118:12236   */\n      pop\n        /* \"#utility.yul\":12067:12236   */\n      swap3\n      swap2\n      pop\n      pop\n      jump\t// out\n        /* \"#utility.yul\":12241:12536   */\n    tag_146:\n        /* \"#utility.yul\":12317:12321   */\n      0x00\n        /* \"#utility.yul\":12463:12492   */\n      tag_296\n        /* \"#utility.yul\":12488:12491   */\n      dup4\n        /* \"#utility.yul\":12482:12486   */\n      dup4\n        /* \"#utility.yul\":12463:12492   */\n      tag_145\n      jump\t// in\n    tag_296:\n        /* \"#utility.yul\":12455:12492   */\n      swap2\n      pop\n        /* \"#utility.yul\":12525:12528   */\n      dup3\n        /* \"#utility.yul\":12522:12523   */\n      0x02\n        /* \"#utility.yul\":12518:12529   */\n      mul\n        /* \"#utility.yul\":12512:12516   */\n      dup3\n        /* \"#utility.yul\":12509:12530   */\n      or\n        /* \"#utility.yul\":12501:12530   */\n      swap1\n      pop\n        /* \"#utility.yul\":12241:12536   */\n      swap3\n      swap2\n      pop\n      pop\n      jump\t// out\n        /* \"#utility.yul\":12541:13936   */\n    tag_84:\n        /* \"#utility.yul\":12658:12695   */\n      tag_298\n        /* \"#utility.yul\":12691:12694   */\n      dup3\n        /* \"#utility.yul\":12658:12695   */\n      tag_110\n      jump\t// in\n    tag_298:\n        /* \"#utility.yul\":12760:12778   */\n      0xffffffffffffffff\n        /* \"#utility.yul\":12752:12758   */\n      dup2\n        /* \"#utility.yul\":12749:12779   */\n      gt\n        /* \"#utility.yul\":12746:12802   */\n      iszero\n      tag_299\n      jumpi\n        /* \"#utility.yul\":12782:12800   */\n      tag_300\n      tag_120\n      jump\t// in\n    tag_300:\n        /* \"#utility.yul\":12746:12802   */\n    tag_299:\n        /* \"#utility.yul\":12826:12864   */\n      tag_301\n        /* \"#utility.yul\":12858:12862   */\n      dup3\n        /* \"#utility.yul\":12852:12863   */\n      sload\n        /* \"#utility.yul\":12826:12864   */\n      tag_74\n      jump\t// in\n    tag_301:\n        /* \"#utility.yul\":12911:12978   */\n      tag_302\n        /* \"#utility.yul\":12971:12977   */\n      dup3\n        /* \"#utility.yul\":12963:12969   */\n      dup3\n        /* \"#utility.yul\":12957:12961   */\n      dup6\n        /* \"#utility.yul\":12911:12978   */\n      tag_143\n      jump\t// in\n    tag_302:\n        /* \"#utility.yul\":13005:13006   */\n      0x00\n        /* \"#utility.yul\":13029:13033   */\n      0x20\n        /* \"#utility.yul\":13016:13033   */\n      swap1\n      pop\n        /* \"#utility.yul\":13061:13063   */\n      0x1f\n        /* \"#utility.yul\":13053:13059   */\n      dup4\n        /* \"#utility.yul\":13050:13064   */\n      gt\n        /* \"#utility.yul\":13078:13079   */\n      0x01\n        /* \"#utility.yul\":13073:13691   */\n      dup2\n      eq\n      tag_304\n      jumpi\n        /* \"#utility.yul\":13735:13736   */\n      0x00\n        /* \"#utility.yul\":13752:13758   */\n      dup5\n        /* \"#utility.yul\":13749:13826   */\n      iszero\n      tag_305\n      jumpi\n        /* \"#utility.yul\":13801:13810   */\n      dup3\n        /* \"#utility.yul\":13796:13799   */\n      dup8\n        /* \"#utility.yul\":13792:13811   */\n      add\n        /* \"#utility.yul\":13786:13812   */\n      mload\n        /* \"#utility.yul\":13777:13812   */\n      swap1\n      pop\n        /* \"#utility.yul\":13749:13826   */\n    tag_305:\n        /* \"#utility.yul\":13852:13919   */\n      tag_306\n        /* \"#utility.yul\":13912:13918   */\n      dup6\n        /* \"#utility.yul\":13905:13910   */\n      dup3\n        /* \"#utility.yul\":13852:13919   */\n      tag_146\n      jump\t// in\n    tag_306:\n        /* \"#utility.yul\":13846:13850   */\n      dup7\n        /* \"#utility.yul\":13839:13920   */\n      sstore\n        /* \"#utility.yul\":13708:13930   */\n      pop\n        /* \"#utility.yul\":13043:13930   */\n      jump(tag_303)\n        /* \"#utility.yul\":13073:13691   */\n    tag_304:\n        /* \"#utility.yul\":13125:13129   */\n      0x1f\n        /* \"#utility.yul\":13121:13130   */\n      not\n        /* \"#utility.yul\":13113:13119   */\n      dup5\n        /* \"#utility.yul\":13109:13131   */\n      and\n        /* \"#utility.yul\":13159:13196   */\n      tag_307\n        /* \"#utility.yul\":13191:13195   */\n      dup7\n        /* \"#utility.yul\":13159:13196   */\n      tag_132\n      jump\t// in\n    tag_307:\n        /* \"#utility.yul\":13218:13219   */\n      0x00\n        /* \"#utility.yul\":13232:13440   */\n    tag_308:\n        /* \"#utility.yul\":13246:13253   */\n      dup3\n        /* \"#utility.yul\":13243:13244   */\n      dup2\n        /* \"#utility.yul\":13240:13254   */\n      lt\n        /* \"#utility.yul\":13232:13440   */\n      iszero\n      tag_310\n      jumpi\n        /* \"#utility.yul\":13325:13334   */\n      dup5\n        /* \"#utility.yul\":13320:13323   */\n      dup10\n        /* \"#utility.yul\":13316:13335   */\n      add\n        /* \"#utility.yul\":13310:13336   */\n      mload\n        /* \"#utility.yul\":13302:13308   */\n      dup3\n        /* \"#utility.yul\":13295:13337   */\n      sstore\n        /* \"#utility.yul\":13376:13377   */\n      0x01\n        /* \"#utility.yul\":13368:13374   */\n      dup3\n        /* \"#utility.yul\":13364:13378   */\n      add\n        /* \"#utility.yul\":13354:13378   */\n      swap2\n      pop\n        /* \"#utility.yul\":13423:13425   */\n      0x20\n        /* \"#utility.yul\":13412:13421   */\n      dup6\n        /* \"#utility.yul\":13408:13426   */\n      add\n        /* \"#utility.yul\":13395:13426   */\n      swap5\n      pop\n        /* \"#utility.yul\":13269:13273   */\n      0x20\n        /* \"#utility.yul\":13266:13267   */\n      dup2\n        /* \"#utility.yul\":13262:13274   */\n      add\n        /* \"#utility.yul\":13257:13274   */\n      swap1\n      pop\n        /* \"#utility.yul\":13232:13440   */\n      jump(tag_308)\n    tag_310:\n        /* \"#utility.yul\":13468:13474   */\n      dup7\n        /* \"#utility.yul\":13459:13466   */\n      dup4\n        /* \"#utility.yul\":13456:13475   */\n      lt\n        /* \"#utility.yul\":13453:13632   */\n      iszero\n      tag_311\n      jumpi\n        /* \"#utility.yul\":13526:13535   */\n      dup5\n        /* \"#utility.yul\":13521:13524   */\n      dup10\n        /* \"#utility.yul\":13517:13536   */\n      add\n        /* \"#utility.yul\":13511:13537   */\n      mload\n        /* \"#utility.yul\":13569:13617   */\n      tag_312\n        /* \"#utility.yul\":13611:13615   */\n      0x1f\n        /* \"#utility.yul\":13603:13609   */\n      dup10\n        /* \"#utility.yul\":13599:13616   */\n      and\n        /* \"#utility.yul\":13588:13597   */\n      dup3\n        /* \"#utility.yul\":13569:13617   */\n      tag_145\n      jump\t// in\n    tag_312:\n        /* \"#utility.yul\":13561:13567   */\n      dup4\n        /* \"#utility.yul\":13554:13618   */\n      sstore\n        /* \"#utility.yul\":13476:13632   */\n      pop\n        /* \"#utility.yul\":13453:13632   */\n    tag_311:\n        /* \"#utility.yul\":13678:13679   */\n      0x01\n        /* \"#utility.yul\":13674:13675   */\n      0x02\n        /* \"#utility.yul\":13666:13672   */\n      dup9\n        /* \"#utility.yul\":13662:13676   */\n      mul\n        /* \"#utility.yul\":13658:13680   */\n      add\n        /* \"#utility.yul\":13652:13656   */\n      dup9\n        /* \"#utility.yul\":13645:13681   */\n      sstore\n        /* \"#utility.yul\":13080:13691   */\n      pop\n      pop\n      pop\n        /* \"#utility.yul\":13043:13930   */\n    tag_303:\n      pop\n        /* \"#utility.yul\":12633:13936   */\n      pop\n      pop\n      pop\n        /* \"#utility.yul\":12541:13936   */\n      pop\n      pop\n      jump\t// out\n        /* \"#utility.yul\":13942:14175   */\n    tag_88:\n        /* \"#utility.yul\":13981:13984   */\n      0x00\n        /* \"#utility.yul\":14004:14028   */\n      tag_314\n        /* \"#utility.yul\":14022:14027   */\n      dup3\n        /* \"#utility.yul\":14004:14028   */\n      tag_100\n      jump\t// in\n    tag_314:\n        /* \"#utility.yul\":13995:14028   */\n      swap2\n      pop\n        /* \"#utility.yul\":14050:14116   */\n      0xffffffffffffffffffffffffffffffffffffffffffffffffffffffffffffffff\n        /* \"#utility.yul\":14043:14048   */\n      dup3\n        /* \"#utility.yul\":14040:14117   */\n      sub\n        /* \"#utility.yul\":14037:14140   */\n      tag_315\n      jumpi\n        /* \"#utility.yul\":14120:14138   */\n      tag_316\n      tag_130\n      jump\t// in\n    tag_316:\n        /* \"#utility.yul\":14037:14140   */\n    tag_315:\n        /* \"#utility.yul\":14167:14168   */\n      0x01\n        /* \"#utility.yul\":14160:14165   */\n      dup3\n        /* \"#utility.yul\":14156:14169   */\n      add\n        /* \"#utility.yul\":14149:14169   */\n      swap1\n      pop\n        /* \"#utility.yul\":13942:14175   */\n      swap2\n      swap1\n      pop\n      jump\t// out\n\n    auxdata: 0xa26469706673582212201d34e03f0188b3622fba7475e96c615c2d9388c0584da9f10383729fd307b26264736f6c634300080f0033\n}\n","bytecode":{"linkReferences":{},"object":"60806040523480156200001157600080fd5b50604051620011a7380380620011a783398181016040528101906200003791906200012c565b80600160006101000a81548173ffffffffffffffffffffffffffffffffffffffff021916908373ffffffffffffffffffffffffffffffffffffffff16021790555081600281905550505062000173565b600080fd5b6000819050919050565b620000a1816200008c565b8114620000ad57600080fd5b50565b600081519050620000c18162000096565b92915050565b600073ffffffffffffffffffffffffffffffffffffffff82169050919050565b6000620000f482620000c7565b9050919050565b6200010681620000e7565b81146200011257600080fd5b50565b6000815190506200012681620000fb565b92915050565b6000806040838503121562000146576200014562000087565b5b60006200015685828601620000b0565b9250506020620001698582860162000115565b9150509250929050565b61102480620001836000396000f3fe6080604052600436106100865760003560e01c806382fde0931161005957806382fde0931461015d5780638a9cfd5514610188578063aaffadf3146101b1578063d7bb99ba146101dc578063d7d1bbdb146101e657610086565b8063034410061461008b5780630a144391146100b4578063481c6a75146100f157806381d12c581461011c575b600080fd5b34801561009757600080fd5b506100b260048036038101906100ad91906107e4565b61020f565b005b3480156100c057600080fd5b506100db60048036038101906100d6919061086f565b610379565b6040516100e891906108b7565b60405180910390f35b3480156100fd57600080fd5b50610106610399565b60405161011391906108e1565b60405180910390f35b34801561012857600080fd5b50610143600480360381019061013e91906107e4565b6103bf565b6040516101549594939291906109c5565b60405180910390f35b34801561016957600080fd5b506101726104ba565b60405161017f9190610a1f565b60405180910390f35b34801561019457600080fd5b506101af60048036038101906101aa9190610b9b565b6104c0565b005b3480156101bd57600080fd5b506101c66105c8565b6040516101d39190610a1f565b60405180910390f35b6101e46105ce565b005b3480156101f257600080fd5b5061020d600480360381019061020891906107e4565b61064e565b005b600160009054906101000a900473ffffffffffffffffffffffffffffffffffffffff1673ffffffffffffffffffffffffffffffffffffffff163373ffffffffffffffffffffffffffffffffffffffff161461026957600080fd5b600080828154811061027e5761027d610c0a565b5b906000526020600020906005020190508060020160149054906101000a900460ff16156102aa57600080fd5b60026004546102b99190610c97565b8160030154116102c857600080fd5b8060020160009054906101000a900473ffffffffffffffffffffffffffffffffffffffff1673ffffffffffffffffffffffffffffffffffffffff166108fc82600101549081150290604051600060405180830381858888f19350505050158015610336573d6000803e3d6000fd5b5060016000838154811061034d5761034c610c0a565b5b906000526020600020906005020160020160146101000a81548160ff0219169083151502179055505050565b60036020528060005260406000206000915054906101000a900460ff1681565b600160009054906101000a900473ffffffffffffffffffffffffffffffffffffffff1681565b600081815481106103cf57600080fd5b90600052602060002090600502016000915090508060000180546103f290610cf7565b80601f016020809104026020016040519081016040528092919081815260200182805461041e90610cf7565b801561046b5780601f106104405761010080835404028352916020019161046b565b820191906000526020600020905b81548152906001019060200180831161044e57829003601f168201915b5050505050908060010154908060020160009054906101000a900473ffffffffffffffffffffffffffffffffffffffff16908060020160149054906101000a900460ff16908060030154905085565b60045481565b600160009054906101000a900473ffffffffffffffffffffffffffffffffffffffff1673ffffffffffffffffffffffffffffffffffffffff163373ffffffffffffffffffffffffffffffffffffffff161461051a57600080fd5b60008060018160018154018082558091505003906000526020600020906005020190508381600001908161054e9190610ed4565b50828160010181905550818160020160006101000a81548173ffffffffffffffffffffffffffffffffffffffff021916908373ffffffffffffffffffffffffffffffffffffffff16021790555060008160020160146101000a81548160ff0219169083151502179055506000816003018190555050505050565b60025481565b60025434116105dc57600080fd5b6001600360003373ffffffffffffffffffffffffffffffffffffffff1673ffffffffffffffffffffffffffffffffffffffff16815260200190815260200160002060006101000a81548160ff0219169083151502179055506004600081548092919061064790610fa6565b9190505550565b600360003373ffffffffffffffffffffffffffffffffffffffff1673ffffffffffffffffffffffffffffffffffffffff16815260200190815260200160002060009054906101000a900460ff166106a457600080fd5b60008082815481106106b9576106b8610c0a565b5b906000526020600020906005020190508060040160003373ffffffffffffffffffffffffffffffffffffffff1673ffffffffffffffffffffffffffffffffffffffff16815260200190815260200160002060009054906101000a900460ff161561072257600080fd5b60018160040160003373ffffffffffffffffffffffffffffffffffffffff1673ffffffffffffffffffffffffffffffffffffffff16815260200190815260200160002060006101000a81548160ff02191690831515021790555080600301600081548092919061079190610fa6565b91905055505050565b6000604051905090565b600080fd5b600080fd5b6000819050919050565b6107c1816107ae565b81146107cc57600080fd5b50565b6000813590506107de816107b8565b92915050565b6000602082840312156107fa576107f96107a4565b5b6000610808848285016107cf565b91505092915050565b600073ffffffffffffffffffffffffffffffffffffffff82169050919050565b600061083c82610811565b9050919050565b61084c81610831565b811461085757600080fd5b50565b60008135905061086981610843565b92915050565b600060208284031215610885576108846107a4565b5b60006108938482850161085a565b91505092915050565b60008115159050919050565b6108b18161089c565b82525050565b60006020820190506108cc60008301846108a8565b92915050565b6108db81610831565b82525050565b60006020820190506108f660008301846108d2565b92915050565b600081519050919050565b600082825260208201905092915050565b60005b8381101561093657808201518184015260208101905061091b565b83811115610945576000848401525b50505050565b6000601f19601f8301169050919050565b6000610967826108fc565b6109718185610907565b9350610981818560208601610918565b61098a8161094b565b840191505092915050565b61099e816107ae565b82525050565b60006109af82610811565b9050919050565b6109bf816109a4565b82525050565b600060a08201905081810360008301526109df818861095c565b90506109ee6020830187610995565b6109fb60408301866109b6565b610a0860608301856108a8565b610a156080830184610995565b9695505050505050565b6000602082019050610a346000830184610995565b92915050565b600080fd5b600080fd5b7f4e487b7100000000000000000000000000000000000000000000000000000000600052604160045260246000fd5b610a7c8261094b565b810181811067ffffffffffffffff82111715610a9b57610a9a610a44565b5b80604052505050565b6000610aae61079a565b9050610aba8282610a73565b919050565b600067ffffffffffffffff821115610ada57610ad9610a44565b5b610ae38261094b565b9050602081019050919050565b82818337600083830152505050565b6000610b12610b0d84610abf565b610aa4565b905082815260208101848484011115610b2e57610b2d610a3f565b5b610b39848285610af0565b509392505050565b600082601f830112610b5657610b55610a3a565b5b8135610b66848260208601610aff565b91505092915050565b610b78816109a4565b8114610b8357600080fd5b50565b600081359050610b9581610b6f565b92915050565b600080600060608486031215610bb457610bb36107a4565b5b600084013567ffffffffffffffff811115610bd257610bd16107a9565b5b610bde86828701610b41565b9350506020610bef868287016107cf565b9250506040610c0086828701610b86565b9150509250925092565b7f4e487b7100000000000000000000000000000000000000000000000000000000600052603260045260246000fd5b7f4e487b7100000000000000000000000000000000000000000000000000000000600052601260045260246000fd5b7f4e487b7100000000000000000000000000000000000000000000000000000000600052601160045260246000fd5b6000610ca2826107ae565b9150610cad836107ae565b925082610cbd57610cbc610c39565b5b828204905092915050565b7f4e487b7100000000000000000000000000000000000000000000000000000000600052602260045260246000fd5b60006002820490506001821680610d0f57607f821691505b602082108103610d2257610d21610cc8565b5b50919050565b60008190508160005260206000209050919050565b60006020601f8301049050919050565b600082821b905092915050565b600060088302610d8a7fffffffffffffffffffffffffffffffffffffffffffffffffffffffffffffffff82610d4d565b610d948683610d4d565b95508019841693508086168417925050509392505050565b6000819050919050565b6000610dd1610dcc610dc7846107ae565b610dac565b6107ae565b9050919050565b6000819050919050565b610deb83610db6565b610dff610df782610dd8565b848454610d5a565b825550505050565b600090565b610e14610e07565b610e1f818484610de2565b505050565b5b81811015610e4357610e38600082610e0c565b600181019050610e25565b5050565b601f821115610e8857610e5981610d28565b610e6284610d3d565b81016020851015610e71578190505b610e85610e7d85610d3d565b830182610e24565b50505b505050565b600082821c905092915050565b6000610eab60001984600802610e8d565b1980831691505092915050565b6000610ec48383610e9a565b9150826002028217905092915050565b610edd826108fc565b67ffffffffffffffff811115610ef657610ef5610a44565b5b610f008254610cf7565b610f0b828285610e47565b600060209050601f831160018114610f3e5760008415610f2c578287015190505b610f368582610eb8565b865550610f9e565b601f198416610f4c86610d28565b60005b82811015610f7457848901518255600182019150602085019450602081019050610f4f565b86831015610f915784890151610f8d601f891682610e9a565b8355505b6001600288020188555050505b505050505050565b6000610fb1826107ae565b91507fffffffffffffffffffffffffffffffffffffffffffffffffffffffffffffffff8203610fe357610fe2610c68565b5b60018201905091905056fea26469706673582212201d34e03f0188b3622fba7475e96c615c2d9388c0584da9f10383729fd307b26264736f6c634300080f0033","opcodes":"PUSH1 0x80 PUSH1 0x40 MSTORE CALLVALUE DUP1 ISZERO PUSH3 0x11 JUMPI PUSH1 0x0 DUP1 REVERT JUMPDEST POP PUSH1 0x40 MLOAD PUSH3 0x11A7 CODESIZE SUB DUP1 PUSH3 0x11A7 DUP4 CODECOPY DUP2 DUP2 ADD PUSH1 0x40 MSTORE DUP2 ADD SWAP1 PUSH3 0x37 SWAP2 SWAP1 PUSH3 0x12C JUMP JUMPDEST DUP1 PUSH1 0x1 PUSH1 0x0 PUSH2 0x100 EXP DUP2 SLOAD DUP2 PUSH20 0xFFFFFFFFFFFFFFFFFFFFFFFFFFFFFFFFFFFFFFFF MUL NOT AND SWAP1 DUP4 PUSH20 0xFFFFFFFFFFFFFFFFFFFFFFFFFFFFFFFFFFFFFFFF AND MUL OR SWAP1 SSTORE POP DUP2 PUSH1 0x2 DUP2 SWAP1 SSTORE POP POP POP PUSH3 0x173 JUMP JUMPDEST PUSH1 0x0 DUP1 REVERT JUMPDEST PUSH1 0x0 DUP2 SWAP1 POP SWAP2 SWAP1 POP JUMP JUMPDEST PUSH3 0xA1 DUP2 PUSH3 0x8C JUMP JUMPDEST DUP2 EQ PUSH3 0xAD JUMPI PUSH1 0x0 DUP1 REVERT JUMPDEST POP JUMP JUMPDEST PUSH1 0x0 DUP2 MLOAD SWAP1 POP PUSH3 0xC1 DUP2 PUSH3 0x96 JUMP JUMPDEST SWAP3 SWAP2 POP POP JUMP JUMPDEST PUSH1 0x0 PUSH20 0xFFFFFFFFFFFFFFFFFFFFFFFFFFFFFFFFFFFFFFFF DUP3 AND SWAP1 POP SWAP2 SWAP1 POP JUMP JUMPDEST PUSH1 0x0 PUSH3 0xF4 DUP3 PUSH3 0xC7 JUMP JUMPDEST SWAP1 POP SWAP2 SWAP1 POP JUMP JUMPDEST PUSH3 0x106 DUP2 PUSH3 0xE7 JUMP JUMPDEST DUP2 EQ PUSH3 0x112 JUMPI PUSH1 0x0 DUP1 REVERT JUMPDEST POP JUMP JUMPDEST PUSH1 0x0 DUP2 MLOAD SWAP1 POP PUSH3 0x126 DUP2 PUSH3 0xFB JUMP JUMPDEST SWAP3 SWAP2 POP POP JUMP JUMPDEST PUSH1 0x0 DUP1 PUSH1 0x40 DUP4 DUP6 SUB SLT ISZERO PUSH3 0x146 JUMPI PUSH3 0x145 PUSH3 0x87 JUMP JUMPDEST JUMPDEST PUSH1 0x0 PUSH3 0x156 DUP6 DUP3 DUP7 ADD PUSH3 0xB0 JUMP JUMPDEST SWAP3 POP POP PUSH1 0x20 PUSH3 0x169 DUP6 DUP3 DUP7 ADD PUSH3 0x115 JUMP JUMPDEST SWAP2 POP POP SWAP3 POP SWAP3 SWAP1 POP JUMP JUMPDEST PUSH2 0x1024 DUP1 PUSH3 0x183 PUSH1 0x0 CODECOPY PUSH1 0x0 RETURN INVALID PUSH1 0x80 PUSH1 0x40 MSTORE PUSH1 0x4 CALLDATASIZE LT PUSH2 0x86 JUMPI PUSH1 0x0 CALLDATALOAD PUSH1 0xE0 SHR DUP1 PUSH4 0x82FDE093 GT PUSH2 0x59 JUMPI DUP1 PUSH4 0x82FDE093 EQ PUSH2 0x15D JUMPI DUP1 PUSH4 0x8A9CFD55 EQ PUSH2 0x188 JUMPI DUP1 PUSH4 0xAAFFADF3 EQ PUSH2 0x1B1 JUMPI DUP1 PUSH4 0xD7BB99BA EQ PUSH2 0x1DC JUMPI DUP1 PUSH4 0xD7D1BBDB EQ PUSH2 0x1E6 JUMPI PUSH2 0x86 JUMP JUMPDEST DUP1 PUSH4 0x3441006 EQ PUSH2 0x8B JUMPI DUP1 PUSH4 0xA144391 EQ PUSH2 0xB4 JUMPI DUP1 PUSH4 0x481C6A75 EQ PUSH2 0xF1 JUMPI DUP1 PUSH4 0x81D12C58 EQ PUSH2 0x11C JUMPI JUMPDEST PUSH1 0x0 DUP1 REVERT JUMPDEST CALLVALUE DUP1 ISZERO PUSH2 0x97 JUMPI PUSH1 0x0 DUP1 REVERT JUMPDEST POP PUSH2 0xB2 PUSH1 0x4 DUP1 CALLDATASIZE SUB DUP2 ADD SWAP1 PUSH2 0xAD SWAP2 SWAP1 PUSH2 0x7E4 JUMP JUMPDEST PUSH2 0x20F JUMP JUMPDEST STOP JUMPDEST CALLVALUE DUP1 ISZERO PUSH2 0xC0 JUMPI PUSH1 0x0 DUP1 REVERT JUMPDEST POP PUSH2 0xDB PUSH1 0x4 DUP1 CALLDATASIZE SUB DUP2 ADD SWAP1 PUSH2 0xD6 SWAP2 SWAP1 PUSH2 0x86F JUMP JUMPDEST PUSH2 0x379 JUMP JUMPDEST PUSH1 0x40 MLOAD PUSH2 0xE8 SWAP2 SWAP1 PUSH2 0x8B7 JUMP JUMPDEST PUSH1 0x40 MLOAD DUP1 SWAP2 SUB SWAP1 RETURN JUMPDEST CALLVALUE DUP1 ISZERO PUSH2 0xFD JUMPI PUSH1 0x0 DUP1 REVERT JUMPDEST POP PUSH2 0x106 PUSH2 0x399 JUMP JUMPDEST PUSH1 0x40 MLOAD PUSH2 0x113 SWAP2 SWAP1 PUSH2 0x8E1 JUMP JUMPDEST PUSH1 0x40 MLOAD DUP1 SWAP2 SUB SWAP1 RETURN JUMPDEST CALLVALUE DUP1 ISZERO PUSH2 0x128 JUMPI PUSH1 0x0 DUP1 REVERT JUMPDEST POP PUSH2 0x143 PUSH1 0x4 DUP1 CALLDATASIZE SUB DUP2 ADD SWAP1 PUSH2 0x13E SWAP2 SWAP1 PUSH2 0x7E4 JUMP JUMPDEST PUSH2 0x3BF JUMP JUMPDEST PUSH1 0x40 MLOAD PUSH2 0x154 SWAP6 SWAP5 SWAP4 SWAP3 SWAP2 SWAP1 PUSH2 0x9C5 JUMP JUMPDEST PUSH1 0x40 MLOAD DUP1 SWAP2 SUB SWAP1 RETURN JUMPDEST CALLVALUE DUP1 ISZERO PUSH2 0x169 JUMPI PUSH1 0x0 DUP1 REVERT JUMPDEST POP PUSH2 0x172 PUSH2 0x4BA JUMP JUMPDEST PUSH1 0x40 MLOAD PUSH2 0x17F SWAP2 SWAP1 PUSH2 0xA1F JUMP JUMPDEST PUSH1 0x40 MLOAD DUP1 SWAP2 SUB SWAP1 RETURN JUMPDEST CALLVALUE DUP1 ISZERO PUSH2 0x194 JUMPI PUSH1 0x0 DUP1 REVERT JUMPDEST POP PUSH2 0x1AF PUSH1 0x4 DUP1 CALLDATASIZE SUB DUP2 ADD SWAP1 PUSH2 0x1AA SWAP2 SWAP1 PUSH2 0xB9B JUMP JUMPDEST PUSH2 0x4C0 JUMP JUMPDEST STOP JUMPDEST CALLVALUE DUP1 ISZERO PUSH2 0x1BD JUMPI PUSH1 0x0 DUP1 REVERT JUMPDEST POP PUSH2 0x1C6 PUSH2 0x5C8 JUMP JUMPDEST PUSH1 0x40 MLOAD PUSH2 0x1D3 SWAP2 SWAP1 PUSH2 0xA1F JUMP JUMPDEST PUSH1 0x40 MLOAD DUP1 SWAP2 SUB SWAP1 RETURN JUMPDEST PUSH2 0x1E4 PUSH2 0x5CE JUMP JUMPDEST STOP JUMPDEST CALLVALUE DUP1 ISZERO PUSH2 0x1F2 JUMPI PUSH1 0x0 DUP1 REVERT JUMPDEST POP PUSH2 0x20D PUSH1 0x4 DUP1 CALLDATASIZE SUB DUP2 ADD SWAP1 PUSH2 0x208 SWAP2 SWAP1 PUSH2 0x7E4 JUMP JUMPDEST PUSH2 0x64E JUMP JUMPDEST STOP JUMPDEST PUSH1 0x1 PUSH1 0x0 SWAP1 SLOAD SWAP1 PUSH2 0x100 EXP SWAP1 DIV PUSH20 0xFFFFFFFFFFFFFFFFFFFFFFFFFFFFFFFFFFFFFFFF AND PUSH20 0xFFFFFFFFFFFFFFFFFFFFFFFFFFFFFFFFFFFFFFFF AND CALLER PUSH20 0xFFFFFFFFFFFFFFFFFFFFFFFFFFFFFFFFFFFFFFFF AND EQ PUSH2 0x269 JUMPI PUSH1 0x0 DUP1 REVERT JUMPDEST PUSH1 0x0 DUP1 DUP3 DUP2 SLOAD DUP2 LT PUSH2 0x27E JUMPI PUSH2 0x27D PUSH2 0xC0A JUMP JUMPDEST JUMPDEST SWAP1 PUSH1 0x0 MSTORE PUSH1 0x20 PUSH1 0x0 KECCAK256 SWAP1 PUSH1 0x5 MUL ADD SWAP1 POP DUP1 PUSH1 0x2 ADD PUSH1 0x14 SWAP1 SLOAD SWAP1 PUSH2 0x100 EXP SWAP1 DIV PUSH1 0xFF AND ISZERO PUSH2 0x2AA JUMPI PUSH1 0x0 DUP1 REVERT JUMPDEST PUSH1 0x2 PUSH1 0x4 SLOAD PUSH2 0x2B9 SWAP2 SWAP1 PUSH2 0xC97 JUMP JUMPDEST DUP2 PUSH1 0x3 ADD SLOAD GT PUSH2 0x2C8 JUMPI PUSH1 0x0 DUP1 REVERT JUMPDEST DUP1 PUSH1 0x2 ADD PUSH1 0x0 SWAP1 SLOAD SWAP1 PUSH2 0x100 EXP SWAP1 DIV PUSH20 0xFFFFFFFFFFFFFFFFFFFFFFFFFFFFFFFFFFFFFFFF AND PUSH20 0xFFFFFFFFFFFFFFFFFFFFFFFFFFFFFFFFFFFFFFFF AND PUSH2 0x8FC DUP3 PUSH1 0x1 ADD SLOAD SWAP1 DUP2 ISZERO MUL SWAP1 PUSH1 0x40 MLOAD PUSH1 0x0 PUSH1 0x40 MLOAD DUP1 DUP4 SUB DUP2 DUP6 DUP9 DUP9 CALL SWAP4 POP POP POP POP ISZERO DUP1 ISZERO PUSH2 0x336 JUMPI RETURNDATASIZE PUSH1 0x0 DUP1 RETURNDATACOPY RETURNDATASIZE PUSH1 0x0 REVERT JUMPDEST POP PUSH1 0x1 PUSH1 0x0 DUP4 DUP2 SLOAD DUP2 LT PUSH2 0x34D JUMPI PUSH2 0x34C PUSH2 0xC0A JUMP JUMPDEST JUMPDEST SWAP1 PUSH1 0x0 MSTORE PUSH1 0x20 PUSH1 0x0 KECCAK256 SWAP1 PUSH1 0x5 MUL ADD PUSH1 0x2 ADD PUSH1 0x14 PUSH2 0x100 EXP DUP2 SLOAD DUP2 PUSH1 0xFF MUL NOT AND SWAP1 DUP4 ISZERO ISZERO MUL OR SWAP1 SSTORE POP POP POP JUMP JUMPDEST PUSH1 0x3 PUSH1 0x20 MSTORE DUP1 PUSH1 0x0 MSTORE PUSH1 0x40 PUSH1 0x0 KECCAK256 PUSH1 0x0 SWAP2 POP SLOAD SWAP1 PUSH2 0x100 EXP SWAP1 DIV PUSH1 0xFF AND DUP2 JUMP JUMPDEST PUSH1 0x1 PUSH1 0x0 SWAP1 SLOAD SWAP1 PUSH2 0x100 EXP SWAP1 DIV PUSH20 0xFFFFFFFFFFFFFFFFFFFFFFFFFFFFFFFFFFFFFFFF AND DUP2 JUMP JUMPDEST PUSH1 0x0 DUP2 DUP2 SLOAD DUP2 LT PUSH2 0x3CF JUMPI PUSH1 0x0 DUP1 REVERT JUMPDEST SWAP1 PUSH1 0x0 MSTORE PUSH1 0x20 PUSH1 0x0 KECCAK256 SWAP1 PUSH1 0x5 MUL ADD PUSH1 0x0 SWAP2 POP SWAP1 POP DUP1 PUSH1 0x0 ADD DUP1 SLOAD PUSH2 0x3F2 SWAP1 PUSH2 0xCF7 JUMP JUMPDEST DUP1 PUSH1 0x1F ADD PUSH1 0x20 DUP1 SWAP2 DIV MUL PUSH1 0x20 ADD PUSH1 0x40 MLOAD SWAP1 DUP2 ADD PUSH1 0x40 MSTORE DUP1 SWAP3 SWAP2 SWAP1 DUP2 DUP2 MSTORE PUSH1 0x20 ADD DUP3 DUP1 SLOAD PUSH2 0x41E SWAP1 PUSH2 0xCF7 JUMP JUMPDEST DUP1 ISZERO PUSH2 0x46B JUMPI DUP1 PUSH1 0x1F LT PUSH2 0x440 JUMPI PUSH2 0x100 DUP1 DUP4 SLOAD DIV MUL DUP4 MSTORE SWAP2 PUSH1 0x20 ADD SWAP2 PUSH2 0x46B JUMP JUMPDEST DUP3 ADD SWAP2 SWAP1 PUSH1 0x0 MSTORE PUSH1 0x20 PUSH1 0x0 KECCAK256 SWAP1 JUMPDEST DUP2 SLOAD DUP2 MSTORE SWAP1 PUSH1 0x1 ADD SWAP1 PUSH1 0x20 ADD DUP1 DUP4 GT PUSH2 0x44E JUMPI DUP3 SWAP1 SUB PUSH1 0x1F AND DUP3 ADD SWAP2 JUMPDEST POP POP POP POP POP SWAP1 DUP1 PUSH1 0x1 ADD SLOAD SWAP1 DUP1 PUSH1 0x2 ADD PUSH1 0x0 SWAP1 SLOAD SWAP1 PUSH2 0x100 EXP SWAP1 DIV PUSH20 0xFFFFFFFFFFFFFFFFFFFFFFFFFFFFFFFFFFFFFFFF AND SWAP1 DUP1 PUSH1 0x2 ADD PUSH1 0x14 SWAP1 SLOAD SWAP1 PUSH2 0x100 EXP SWAP1 DIV PUSH1 0xFF AND SWAP1 DUP1 PUSH1 0x3 ADD SLOAD SWAP1 POP DUP6 JUMP JUMPDEST PUSH1 0x4 SLOAD DUP2 JUMP JUMPDEST PUSH1 0x1 PUSH1 0x0 SWAP1 SLOAD SWAP1 PUSH2 0x100 EXP SWAP1 DIV PUSH20 0xFFFFFFFFFFFFFFFFFFFFFFFFFFFFFFFFFFFFFFFF AND PUSH20 0xFFFFFFFFFFFFFFFFFFFFFFFFFFFFFFFFFFFFFFFF AND CALLER PUSH20 0xFFFFFFFFFFFFFFFFFFFFFFFFFFFFFFFFFFFFFFFF AND EQ PUSH2 0x51A JUMPI PUSH1 0x0 DUP1 REVERT JUMPDEST PUSH1 0x0 DUP1 PUSH1 0x1 DUP2 PUSH1 0x1 DUP2 SLOAD ADD DUP1 DUP3 SSTORE DUP1 SWAP2 POP POP SUB SWAP1 PUSH1 0x0 MSTORE PUSH1 0x20 PUSH1 0x0 KECCAK256 SWAP1 PUSH1 0x5 MUL ADD SWAP1 POP DUP4 DUP2 PUSH1 0x0 ADD SWAP1 DUP2 PUSH2 0x54E SWAP2 SWAP1 PUSH2 0xED4 JUMP JUMPDEST POP DUP3 DUP2 PUSH1 0x1 ADD DUP2 SWAP1 SSTORE POP DUP2 DUP2 PUSH1 0x2 ADD PUSH1 0x0 PUSH2 0x100 EXP DUP2 SLOAD DUP2 PUSH20 0xFFFFFFFFFFFFFFFFFFFFFFFFFFFFFFFFFFFFFFFF MUL NOT AND SWAP1 DUP4 PUSH20 0xFFFFFFFFFFFFFFFFFFFFFFFFFFFFFFFFFFFFFFFF AND MUL OR SWAP1 SSTORE POP PUSH1 0x0 DUP2 PUSH1 0x2 ADD PUSH1 0x14 PUSH2 0x100 EXP DUP2 SLOAD DUP2 PUSH1 0xFF MUL NOT AND SWAP1 DUP4 ISZERO ISZERO MUL OR SWAP1 SSTORE POP PUSH1 0x0 DUP2 PUSH1 0x3 ADD DUP2 SWAP1 SSTORE POP POP POP POP POP JUMP JUMPDEST PUSH1 0x2 SLOAD DUP2 JUMP JUMPDEST PUSH1 0x2 SLOAD CALLVALUE GT PUSH2 0x5DC JUMPI PUSH1 0x0 DUP1 REVERT JUMPDEST PUSH1 0x1 PUSH1 0x3 PUSH1 0x0 CALLER PUSH20 0xFFFFFFFFFFFFFFFFFFFFFFFFFFFFFFFFFFFFFFFF AND PUSH20 0xFFFFFFFFFFFFFFFFFFFFFFFFFFFFFFFFFFFFFFFF AND DUP2 MSTORE PUSH1 0x20 ADD SWAP1 DUP2 MSTORE PUSH1 0x20 ADD PUSH1 0x0 KECCAK256 PUSH1 0x0 PUSH2 0x100 EXP DUP2 SLOAD DUP2 PUSH1 0xFF MUL NOT AND SWAP1 DUP4 ISZERO ISZERO MUL OR SWAP1 SSTORE POP PUSH1 0x4 PUSH1 0x0 DUP2 SLOAD DUP1 SWAP3 SWAP2 SWAP1 PUSH2 0x647 SWAP1 PUSH2 0xFA6 JUMP JUMPDEST SWAP2 SWAP1 POP SSTORE POP JUMP JUMPDEST PUSH1 0x3 PUSH1 0x0 CALLER PUSH20 0xFFFFFFFFFFFFFFFFFFFFFFFFFFFFFFFFFFFFFFFF AND PUSH20 0xFFFFFFFFFFFFFFFFFFFFFFFFFFFFFFFFFFFFFFFF AND DUP2 MSTORE PUSH1 0x20 ADD SWAP1 DUP2 MSTORE PUSH1 0x20 ADD PUSH1 0x0 KECCAK256 PUSH1 0x0 SWAP1 SLOAD SWAP1 PUSH2 0x100 EXP SWAP1 DIV PUSH1 0xFF AND PUSH2 0x6A4 JUMPI PUSH1 0x0 DUP1 REVERT JUMPDEST PUSH1 0x0 DUP1 DUP3 DUP2 SLOAD DUP2 LT PUSH2 0x6B9 JUMPI PUSH2 0x6B8 PUSH2 0xC0A JUMP JUMPDEST JUMPDEST SWAP1 PUSH1 0x0 MSTORE PUSH1 0x20 PUSH1 0x0 KECCAK256 SWAP1 PUSH1 0x5 MUL ADD SWAP1 POP DUP1 PUSH1 0x4 ADD PUSH1 0x0 CALLER PUSH20 0xFFFFFFFFFFFFFFFFFFFFFFFFFFFFFFFFFFFFFFFF AND PUSH20 0xFFFFFFFFFFFFFFFFFFFFFFFFFFFFFFFFFFFFFFFF AND DUP2 MSTORE PUSH1 0x20 ADD SWAP1 DUP2 MSTORE PUSH1 0x20 ADD PUSH1 0x0 KECCAK256 PUSH1 0x0 SWAP1 SLOAD SWAP1 PUSH2 0x100 EXP SWAP1 DIV PUSH1 0xFF AND ISZERO PUSH2 0x722 JUMPI PUSH1 0x0 DUP1 REVERT JUMPDEST PUSH1 0x1 DUP2 PUSH1 0x4 ADD PUSH1 0x0 CALLER PUSH20 0xFFFFFFFFFFFFFFFFFFFFFFFFFFFFFFFFFFFFFFFF AND PUSH20 0xFFFFFFFFFFFFFFFFFFFFFFFFFFFFFFFFFFFFFFFF AND DUP2 MSTORE PUSH1 0x20 ADD SWAP1 DUP2 MSTORE PUSH1 0x20 ADD PUSH1 0x0 KECCAK256 PUSH1 0x0 PUSH2 0x100 EXP DUP2 SLOAD DUP2 PUSH1 0xFF MUL NOT AND SWAP1 DUP4 ISZERO ISZERO MUL OR SWAP1 SSTORE POP DUP1 PUSH1 0x3 ADD PUSH1 0x0 DUP2 SLOAD DUP1 SWAP3 SWAP2 SWAP1 PUSH2 0x791 SWAP1 PUSH2 0xFA6 JUMP JUMPDEST SWAP2 SWAP1 POP SSTORE POP POP POP JUMP JUMPDEST PUSH1 0x0 PUSH1 0x40 MLOAD SWAP1 POP SWAP1 JUMP JUMPDEST PUSH1 0x0 DUP1 REVERT JUMPDEST PUSH1 0x0 DUP1 REVERT JUMPDEST PUSH1 0x0 DUP2 SWAP1 POP SWAP2 SWAP1 POP JUMP JUMPDEST PUSH2 0x7C1 DUP2 PUSH2 0x7AE JUMP JUMPDEST DUP2 EQ PUSH2 0x7CC JUMPI PUSH1 0x0 DUP1 REVERT JUMPDEST POP JUMP JUMPDEST PUSH1 0x0 DUP2 CALLDATALOAD SWAP1 POP PUSH2 0x7DE DUP2 PUSH2 0x7B8 JUMP JUMPDEST SWAP3 SWAP2 POP POP JUMP JUMPDEST PUSH1 0x0 PUSH1 0x20 DUP3 DUP5 SUB SLT ISZERO PUSH2 0x7FA JUMPI PUSH2 0x7F9 PUSH2 0x7A4 JUMP JUMPDEST JUMPDEST PUSH1 0x0 PUSH2 0x808 DUP5 DUP3 DUP6 ADD PUSH2 0x7CF JUMP JUMPDEST SWAP2 POP POP SWAP3 SWAP2 POP POP JUMP JUMPDEST PUSH1 0x0 PUSH20 0xFFFFFFFFFFFFFFFFFFFFFFFFFFFFFFFFFFFFFFFF DUP3 AND SWAP1 POP SWAP2 SWAP1 POP JUMP JUMPDEST PUSH1 0x0 PUSH2 0x83C DUP3 PUSH2 0x811 JUMP JUMPDEST SWAP1 POP SWAP2 SWAP1 POP JUMP JUMPDEST PUSH2 0x84C DUP2 PUSH2 0x831 JUMP JUMPDEST DUP2 EQ PUSH2 0x857 JUMPI PUSH1 0x0 DUP1 REVERT JUMPDEST POP JUMP JUMPDEST PUSH1 0x0 DUP2 CALLDATALOAD SWAP1 POP PUSH2 0x869 DUP2 PUSH2 0x843 JUMP JUMPDEST SWAP3 SWAP2 POP POP JUMP JUMPDEST PUSH1 0x0 PUSH1 0x20 DUP3 DUP5 SUB SLT ISZERO PUSH2 0x885 JUMPI PUSH2 0x884 PUSH2 0x7A4 JUMP JUMPDEST JUMPDEST PUSH1 0x0 PUSH2 0x893 DUP5 DUP3 DUP6 ADD PUSH2 0x85A JUMP JUMPDEST SWAP2 POP POP SWAP3 SWAP2 POP POP JUMP JUMPDEST PUSH1 0x0 DUP2 ISZERO ISZERO SWAP1 POP SWAP2 SWAP1 POP JUMP JUMPDEST PUSH2 0x8B1 DUP2 PUSH2 0x89C JUMP JUMPDEST DUP3 MSTORE POP POP JUMP JUMPDEST PUSH1 0x0 PUSH1 0x20 DUP3 ADD SWAP1 POP PUSH2 0x8CC PUSH1 0x0 DUP4 ADD DUP5 PUSH2 0x8A8 JUMP JUMPDEST SWAP3 SWAP2 POP POP JUMP JUMPDEST PUSH2 0x8DB DUP2 PUSH2 0x831 JUMP JUMPDEST DUP3 MSTORE POP POP JUMP JUMPDEST PUSH1 0x0 PUSH1 0x20 DUP3 ADD SWAP1 POP PUSH2 0x8F6 PUSH1 0x0 DUP4 ADD DUP5 PUSH2 0x8D2 JUMP JUMPDEST SWAP3 SWAP2 POP POP JUMP JUMPDEST PUSH1 0x0 DUP2 MLOAD SWAP1 POP SWAP2 SWAP1 POP JUMP JUMPDEST PUSH1 0x0 DUP3 DUP3 MSTORE PUSH1 0x20 DUP3 ADD SWAP1 POP SWAP3 SWAP2 POP POP JUMP JUMPDEST PUSH1 0x0 JUMPDEST DUP4 DUP2 LT ISZERO PUSH2 0x936 JUMPI DUP1 DUP3 ADD MLOAD DUP2 DUP5 ADD MSTORE PUSH1 0x20 DUP2 ADD SWAP1 POP PUSH2 0x91B JUMP JUMPDEST DUP4 DUP2 GT ISZERO PUSH2 0x945 JUMPI PUSH1 0x0 DUP5 DUP5 ADD MSTORE JUMPDEST POP POP POP POP JUMP JUMPDEST PUSH1 0x0 PUSH1 0x1F NOT PUSH1 0x1F DUP4 ADD AND SWAP1 POP SWAP2 SWAP1 POP JUMP JUMPDEST PUSH1 0x0 PUSH2 0x967 DUP3 PUSH2 0x8FC JUMP JUMPDEST PUSH2 0x971 DUP2 DUP6 PUSH2 0x907 JUMP JUMPDEST SWAP4 POP PUSH2 0x981 DUP2 DUP6 PUSH1 0x20 DUP7 ADD PUSH2 0x918 JUMP JUMPDEST PUSH2 0x98A DUP2 PUSH2 0x94B JUMP JUMPDEST DUP5 ADD SWAP2 POP POP SWAP3 SWAP2 POP POP JUMP JUMPDEST PUSH2 0x99E DUP2 PUSH2 0x7AE JUMP JUMPDEST DUP3 MSTORE POP POP JUMP JUMPDEST PUSH1 0x0 PUSH2 0x9AF DUP3 PUSH2 0x811 JUMP JUMPDEST SWAP1 POP SWAP2 SWAP1 POP JUMP JUMPDEST PUSH2 0x9BF DUP2 PUSH2 0x9A4 JUMP JUMPDEST DUP3 MSTORE POP POP JUMP JUMPDEST PUSH1 0x0 PUSH1 0xA0 DUP3 ADD SWAP1 POP DUP2 DUP2 SUB PUSH1 0x0 DUP4 ADD MSTORE PUSH2 0x9DF DUP2 DUP9 PUSH2 0x95C JUMP JUMPDEST SWAP1 POP PUSH2 0x9EE PUSH1 0x20 DUP4 ADD DUP8 PUSH2 0x995 JUMP JUMPDEST PUSH2 0x9FB PUSH1 0x40 DUP4 ADD DUP7 PUSH2 0x9B6 JUMP JUMPDEST PUSH2 0xA08 PUSH1 0x60 DUP4 ADD DUP6 PUSH2 0x8A8 JUMP JUMPDEST PUSH2 0xA15 PUSH1 0x80 DUP4 ADD DUP5 PUSH2 0x995 JUMP JUMPDEST SWAP7 SWAP6 POP POP POP POP POP POP JUMP JUMPDEST PUSH1 0x0 PUSH1 0x20 DUP3 ADD SWAP1 POP PUSH2 0xA34 PUSH1 0x0 DUP4 ADD DUP5 PUSH2 0x995 JUMP JUMPDEST SWAP3 SWAP2 POP POP JUMP JUMPDEST PUSH1 0x0 DUP1 REVERT JUMPDEST PUSH1 0x0 DUP1 REVERT JUMPDEST PUSH32 0x4E487B7100000000000000000000000000000000000000000000000000000000 PUSH1 0x0 MSTORE PUSH1 0x41 PUSH1 0x4 MSTORE PUSH1 0x24 PUSH1 0x0 REVERT JUMPDEST PUSH2 0xA7C DUP3 PUSH2 0x94B JUMP JUMPDEST DUP2 ADD DUP2 DUP2 LT PUSH8 0xFFFFFFFFFFFFFFFF DUP3 GT OR ISZERO PUSH2 0xA9B JUMPI PUSH2 0xA9A PUSH2 0xA44 JUMP JUMPDEST JUMPDEST DUP1 PUSH1 0x40 MSTORE POP POP POP JUMP JUMPDEST PUSH1 0x0 PUSH2 0xAAE PUSH2 0x79A JUMP JUMPDEST SWAP1 POP PUSH2 0xABA DUP3 DUP3 PUSH2 0xA73 JUMP JUMPDEST SWAP2 SWAP1 POP JUMP JUMPDEST PUSH1 0x0 PUSH8 0xFFFFFFFFFFFFFFFF DUP3 GT ISZERO PUSH2 0xADA JUMPI PUSH2 0xAD9 PUSH2 0xA44 JUMP JUMPDEST JUMPDEST PUSH2 0xAE3 DUP3 PUSH2 0x94B JUMP JUMPDEST SWAP1 POP PUSH1 0x20 DUP2 ADD SWAP1 POP SWAP2 SWAP1 POP JUMP JUMPDEST DUP3 DUP2 DUP4 CALLDATACOPY PUSH1 0x0 DUP4 DUP4 ADD MSTORE POP POP POP JUMP JUMPDEST PUSH1 0x0 PUSH2 0xB12 PUSH2 0xB0D DUP5 PUSH2 0xABF JUMP JUMPDEST PUSH2 0xAA4 JUMP JUMPDEST SWAP1 POP DUP3 DUP2 MSTORE PUSH1 0x20 DUP2 ADD DUP5 DUP5 DUP5 ADD GT ISZERO PUSH2 0xB2E JUMPI PUSH2 0xB2D PUSH2 0xA3F JUMP JUMPDEST JUMPDEST PUSH2 0xB39 DUP5 DUP3 DUP6 PUSH2 0xAF0 JUMP JUMPDEST POP SWAP4 SWAP3 POP POP POP JUMP JUMPDEST PUSH1 0x0 DUP3 PUSH1 0x1F DUP4 ADD SLT PUSH2 0xB56 JUMPI PUSH2 0xB55 PUSH2 0xA3A JUMP JUMPDEST JUMPDEST DUP2 CALLDATALOAD PUSH2 0xB66 DUP5 DUP3 PUSH1 0x20 DUP7 ADD PUSH2 0xAFF JUMP JUMPDEST SWAP2 POP POP SWAP3 SWAP2 POP POP JUMP JUMPDEST PUSH2 0xB78 DUP2 PUSH2 0x9A4 JUMP JUMPDEST DUP2 EQ PUSH2 0xB83 JUMPI PUSH1 0x0 DUP1 REVERT JUMPDEST POP JUMP JUMPDEST PUSH1 0x0 DUP2 CALLDATALOAD SWAP1 POP PUSH2 0xB95 DUP2 PUSH2 0xB6F JUMP JUMPDEST SWAP3 SWAP2 POP POP JUMP JUMPDEST PUSH1 0x0 DUP1 PUSH1 0x0 PUSH1 0x60 DUP5 DUP7 SUB SLT ISZERO PUSH2 0xBB4 JUMPI PUSH2 0xBB3 PUSH2 0x7A4 JUMP JUMPDEST JUMPDEST PUSH1 0x0 DUP5 ADD CALLDATALOAD PUSH8 0xFFFFFFFFFFFFFFFF DUP2 GT ISZERO PUSH2 0xBD2 JUMPI PUSH2 0xBD1 PUSH2 0x7A9 JUMP JUMPDEST JUMPDEST PUSH2 0xBDE DUP7 DUP3 DUP8 ADD PUSH2 0xB41 JUMP JUMPDEST SWAP4 POP POP PUSH1 0x20 PUSH2 0xBEF DUP7 DUP3 DUP8 ADD PUSH2 0x7CF JUMP JUMPDEST SWAP3 POP POP PUSH1 0x40 PUSH2 0xC00 DUP7 DUP3 DUP8 ADD PUSH2 0xB86 JUMP JUMPDEST SWAP2 POP POP SWAP3 POP SWAP3 POP SWAP3 JUMP JUMPDEST PUSH32 0x4E487B7100000000000000000000000000000000000000000000000000000000 PUSH1 0x0 MSTORE PUSH1 0x32 PUSH1 0x4 MSTORE PUSH1 0x24 PUSH1 0x0 REVERT JUMPDEST PUSH32 0x4E487B7100000000000000000000000000000000000000000000000000000000 PUSH1 0x0 MSTORE PUSH1 0x12 PUSH1 0x4 MSTORE PUSH1 0x24 PUSH1 0x0 REVERT JUMPDEST PUSH32 0x4E487B7100000000000000000000000000000000000000000000000000000000 PUSH1 0x0 MSTORE PUSH1 0x11 PUSH1 0x4 MSTORE PUSH1 0x24 PUSH1 0x0 REVERT JUMPDEST PUSH1 0x0 PUSH2 0xCA2 DUP3 PUSH2 0x7AE JUMP JUMPDEST SWAP2 POP PUSH2 0xCAD DUP4 PUSH2 0x7AE JUMP JUMPDEST SWAP3 POP DUP3 PUSH2 0xCBD JUMPI PUSH2 0xCBC PUSH2 0xC39 JUMP JUMPDEST JUMPDEST DUP3 DUP3 DIV SWAP1 POP SWAP3 SWAP2 POP POP JUMP JUMPDEST PUSH32 0x4E487B7100000000000000000000000000000000000000000000000000000000 PUSH1 0x0 MSTORE PUSH1 0x22 PUSH1 0x4 MSTORE PUSH1 0x24 PUSH1 0x0 REVERT JUMPDEST PUSH1 0x0 PUSH1 0x2 DUP3 DIV SWAP1 POP PUSH1 0x1 DUP3 AND DUP1 PUSH2 0xD0F JUMPI PUSH1 0x7F DUP3 AND SWAP2 POP JUMPDEST PUSH1 0x20 DUP3 LT DUP2 SUB PUSH2 0xD22 JUMPI PUSH2 0xD21 PUSH2 0xCC8 JUMP JUMPDEST JUMPDEST POP SWAP2 SWAP1 POP JUMP JUMPDEST PUSH1 0x0 DUP2 SWAP1 POP DUP2 PUSH1 0x0 MSTORE PUSH1 0x20 PUSH1 0x0 KECCAK256 SWAP1 POP SWAP2 SWAP1 POP JUMP JUMPDEST PUSH1 0x0 PUSH1 0x20 PUSH1 0x1F DUP4 ADD DIV SWAP1 POP SWAP2 SWAP1 POP JUMP JUMPDEST PUSH1 0x0 DUP3 DUP3 SHL SWAP1 POP SWAP3 SWAP2 POP POP JUMP JUMPDEST PUSH1 0x0 PUSH1 0x8 DUP4 MUL PUSH2 0xD8A PUSH32 0xFFFFFFFFFFFFFFFFFFFFFFFFFFFFFFFFFFFFFFFFFFFFFFFFFFFFFFFFFFFFFFFF DUP3 PUSH2 0xD4D JUMP JUMPDEST PUSH2 0xD94 DUP7 DUP4 PUSH2 0xD4D JUMP JUMPDEST SWAP6 POP DUP1 NOT DUP5 AND SWAP4 POP DUP1 DUP7 AND DUP5 OR SWAP3 POP POP POP SWAP4 SWAP3 POP POP POP JUMP JUMPDEST PUSH1 0x0 DUP2 SWAP1 POP SWAP2 SWAP1 POP JUMP JUMPDEST PUSH1 0x0 PUSH2 0xDD1 PUSH2 0xDCC PUSH2 0xDC7 DUP5 PUSH2 0x7AE JUMP JUMPDEST PUSH2 0xDAC JUMP JUMPDEST PUSH2 0x7AE JUMP JUMPDEST SWAP1 POP SWAP2 SWAP1 POP JUMP JUMPDEST PUSH1 0x0 DUP2 SWAP1 POP SWAP2 SWAP1 POP JUMP JUMPDEST PUSH2 0xDEB DUP4 PUSH2 0xDB6 JUMP JUMPDEST PUSH2 0xDFF PUSH2 0xDF7 DUP3 PUSH2 0xDD8 JUMP JUMPDEST DUP5 DUP5 SLOAD PUSH2 0xD5A JUMP JUMPDEST DUP3 SSTORE POP POP POP POP JUMP JUMPDEST PUSH1 0x0 SWAP1 JUMP JUMPDEST PUSH2 0xE14 PUSH2 0xE07 JUMP JUMPDEST PUSH2 0xE1F DUP2 DUP5 DUP5 PUSH2 0xDE2 JUMP JUMPDEST POP POP POP JUMP JUMPDEST JUMPDEST DUP2 DUP2 LT ISZERO PUSH2 0xE43 JUMPI PUSH2 0xE38 PUSH1 0x0 DUP3 PUSH2 0xE0C JUMP JUMPDEST PUSH1 0x1 DUP2 ADD SWAP1 POP PUSH2 0xE25 JUMP JUMPDEST POP POP JUMP JUMPDEST PUSH1 0x1F DUP3 GT ISZERO PUSH2 0xE88 JUMPI PUSH2 0xE59 DUP2 PUSH2 0xD28 JUMP JUMPDEST PUSH2 0xE62 DUP5 PUSH2 0xD3D JUMP JUMPDEST DUP2 ADD PUSH1 0x20 DUP6 LT ISZERO PUSH2 0xE71 JUMPI DUP2 SWAP1 POP JUMPDEST PUSH2 0xE85 PUSH2 0xE7D DUP6 PUSH2 0xD3D JUMP JUMPDEST DUP4 ADD DUP3 PUSH2 0xE24 JUMP JUMPDEST POP POP JUMPDEST POP POP POP JUMP JUMPDEST PUSH1 0x0 DUP3 DUP3 SHR SWAP1 POP SWAP3 SWAP2 POP POP JUMP JUMPDEST PUSH1 0x0 PUSH2 0xEAB PUSH1 0x0 NOT DUP5 PUSH1 0x8 MUL PUSH2 0xE8D JUMP JUMPDEST NOT DUP1 DUP4 AND SWAP2 POP POP SWAP3 SWAP2 POP POP JUMP JUMPDEST PUSH1 0x0 PUSH2 0xEC4 DUP4 DUP4 PUSH2 0xE9A JUMP JUMPDEST SWAP2 POP DUP3 PUSH1 0x2 MUL DUP3 OR SWAP1 POP SWAP3 SWAP2 POP POP JUMP JUMPDEST PUSH2 0xEDD DUP3 PUSH2 0x8FC JUMP JUMPDEST PUSH8 0xFFFFFFFFFFFFFFFF DUP2 GT ISZERO PUSH2 0xEF6 JUMPI PUSH2 0xEF5 PUSH2 0xA44 JUMP JUMPDEST JUMPDEST PUSH2 0xF00 DUP3 SLOAD PUSH2 0xCF7 JUMP JUMPDEST PUSH2 0xF0B DUP3 DUP3 DUP6 PUSH2 0xE47 JUMP JUMPDEST PUSH1 0x0 PUSH1 0x20 SWAP1 POP PUSH1 0x1F DUP4 GT PUSH1 0x1 DUP2 EQ PUSH2 0xF3E JUMPI PUSH1 0x0 DUP5 ISZERO PUSH2 0xF2C JUMPI DUP3 DUP8 ADD MLOAD SWAP1 POP JUMPDEST PUSH2 0xF36 DUP6 DUP3 PUSH2 0xEB8 JUMP JUMPDEST DUP7 SSTORE POP PUSH2 0xF9E JUMP JUMPDEST PUSH1 0x1F NOT DUP5 AND PUSH2 0xF4C DUP7 PUSH2 0xD28 JUMP JUMPDEST PUSH1 0x0 JUMPDEST DUP3 DUP2 LT ISZERO PUSH2 0xF74 JUMPI DUP5 DUP10 ADD MLOAD DUP3 SSTORE PUSH1 0x1 DUP3 ADD SWAP2 POP PUSH1 0x20 DUP6 ADD SWAP5 POP PUSH1 0x20 DUP2 ADD SWAP1 POP PUSH2 0xF4F JUMP JUMPDEST DUP7 DUP4 LT ISZERO PUSH2 0xF91 JUMPI DUP5 DUP10 ADD MLOAD PUSH2 0xF8D PUSH1 0x1F DUP10 AND DUP3 PUSH2 0xE9A JUMP JUMPDEST DUP4 SSTORE POP JUMPDEST PUSH1 0x1 PUSH1 0x2 DUP9 MUL ADD DUP9 SSTORE POP POP POP JUMPDEST POP POP POP POP POP POP JUMP JUMPDEST PUSH1 0x0 PUSH2 0xFB1 DUP3 PUSH2 0x7AE JUMP JUMPDEST SWAP2 POP PUSH32 0xFFFFFFFFFFFFFFFFFFFFFFFFFFFFFFFFFFFFFFFFFFFFFFFFFFFFFFFFFFFFFFFF DUP3 SUB PUSH2 0xFE3 JUMPI PUSH2 0xFE2 PUSH2 0xC68 JUMP JUMPDEST JUMPDEST PUSH1 0x1 DUP3 ADD SWAP1 POP SWAP2 SWAP1 POP JUMP INVALID LOG2 PUSH5 0x6970667358 0x22 SLT KECCAK256 SAR CALLVALUE 0xE0 EXTCODEHASH ADD DUP9 0xB3 PUSH3 0x2FBA74 PUSH22 0xE96C615C2D9388C0584DA9F10383729FD307B2626473 PUSH16 0x6C634300080F00330000000000000000 "},"gasEstimates":{"creation":{"codeDepositCost":"826400","executionCost":"infinite","totalCost":"infinite"},"external":{"approveRequest(uint256)":"infinite","approvers(address)":"2868","approversCount()":"2429","contribute()":"51021","createRequest(string,uint256,address)":"infinite","finalizeRequest(uint256)":"infinite","manager()":"2559","minContribution()":"2473","requests(uint256)":"infinite"}},"methodIdentifiers":{"approveRequest(uint256)":"d7d1bbdb","approvers(address)":"0a144391","approversCount()":"82fde093","contribute()":"d7bb99ba","createRequest(string,uint256,address)":"8a9cfd55","finalizeRequest(uint256)":"03441006","manager()":"481c6a75","minContribution()":"aaffadf3","requests(uint256)":"81d12c58"}},"storageLayout":{"storage":[{"astId":58,"contract":"Campaign.sol:Campaign","label":"requests","offset":0,"slot":"0","type":"t_array(t_struct(Request)54_storage)dyn_storage"},{"astId":60,"contract":"Campaign.sol:Campaign","label":"manager","offset":0,"slot":"1","type":"t_address"},{"astId":62,"contract":"Campaign.sol:Campaign","label":"minContribution","offset":0,"slot":"2","type":"t_uint256"},{"astId":66,"contract":"Campaign.sol:Campaign","label":"approvers","offset":0,"slot":"3","type":"t_mapping(t_address,t_bool)"},{"astId":68,"contract":"Campaign.sol:Campaign","label":"approversCount","offset":0,"slot":"4","type":"t_uint256"}],"types":{"t_address":{"encoding":"inplace","label":"address","numberOfBytes":"20"},"t_address_payable":{"encoding":"inplace","label":"address payable","numberOfBytes":"20"},"t_array(t_struct(Request)54_storage)dyn_storage":{"base":"t_struct(Request)54_storage","encoding":"dynamic_array","label":"struct Campaign.Request[]","numberOfBytes":"32"},"t_bool":{"encoding":"inplace","label":"bool","numberOfBytes":"1"},"t_mapping(t_address,t_bool)":{"encoding":"mapping","key":"t_address","label":"mapping(address => bool)","numberOfBytes":"32","value":"t_bool"},"t_string_storage":{"encoding":"bytes","label":"string","numberOfBytes":"32"},"t_struct(Request)54_storage":{"encoding":"inplace","label":"struct Campaign.Request","members":[{"astId":41,"contract":"Campaign.sol:Campaign","label":"description","offset":0,"slot":"0","type":"t_string_storage"},{"astId":43,"contract":"Campaign.sol:Campaign","label":"value","offset":0,"slot":"1","type":"t_uint256"},{"astId":45,"contract":"Campaign.sol:Campaign","label":"recipient","offset":0,"slot":"2","type":"t_address_payable"},{"astId":47,"contract":"Campaign.sol:Campaign","label":"complete","offset":20,"slot":"2","type":"t_bool"},{"astId":49,"contract":"Campaign.sol:Campaign","label":"approvalCount","offset":0,"slot":"3","type":"t_uint256"},{"astId":53,"contract":"Campaign.sol:Campaign","label":"approvals","offset":0,"slot":"4","type":"t_mapping(t_address,t_bool)"}],"numberOfBytes":"160"},"t_uint256":{"encoding":"inplace","label":"uint256","numberOfBytes":"32"}}},"userdoc":{"kind":"user","methods":{},"version":1}}